{
  "abi": [
    {
      "type": "constructor",
      "inputs": [
        {
          "name": "_usdcToken",
          "type": "address",
          "internalType": "address"
        },
        {
          "name": "_hotelRegistry",
          "type": "address",
          "internalType": "address"
        }
      ],
      "stateMutability": "nonpayable"
    },
    {
      "type": "function",
      "name": "buyLaLoTokens",
      "inputs": [
        {
          "name": "_hotelId",
          "type": "uint256",
          "internalType": "uint256"
        },
        {
          "name": "_buyInUSDC",
          "type": "uint256",
          "internalType": "uint256"
        }
      ],
      "outputs": [],
      "stateMutability": "nonpayable"
    },
    {
      "type": "function",
      "name": "getAuctionEndDate",
      "inputs": [
        {
          "name": "_hotelId",
          "type": "uint256",
          "internalType": "uint256"
        }
      ],
      "outputs": [
        {
          "name": "",
          "type": "uint256",
          "internalType": "uint256"
        }
      ],
      "stateMutability": "view"
    },
    {
      "type": "function",
      "name": "getAvailableRevenues",
      "inputs": [
        {
          "name": "_hotelId",
          "type": "uint256",
          "internalType": "uint256"
        }
      ],
      "outputs": [
        {
          "name": "",
          "type": "uint256",
          "internalType": "uint256"
        }
      ],
      "stateMutability": "view"
    },
    {
      "type": "function",
      "name": "getAvailableTokens",
      "inputs": [
        {
          "name": "_hotelId",
          "type": "uint256",
          "internalType": "uint256"
        }
      ],
      "outputs": [
        {
          "name": "",
          "type": "uint256",
          "internalType": "uint256"
        }
      ],
      "stateMutability": "view"
    },
    {
      "type": "function",
      "name": "getCollectedRevenues",
      "inputs": [
        {
          "name": "_hotelId",
          "type": "uint256",
          "internalType": "uint256"
        }
      ],
      "outputs": [
        {
          "name": "usdcs",
          "type": "uint256",
          "internalType": "uint256"
        }
      ],
      "stateMutability": "view"
    },
    {
      "type": "function",
      "name": "getCurrentTokens",
      "inputs": [
        {
          "name": "_hotelId",
          "type": "uint256",
          "internalType": "uint256"
        }
      ],
      "outputs": [
        {
          "name": "lloTokens",
          "type": "uint256",
          "internalType": "uint256"
        }
      ],
      "stateMutability": "view"
    },
    {
      "type": "function",
      "name": "getMonthTest",
      "inputs": [
        {
          "name": "_hotelId",
          "type": "uint256",
          "internalType": "uint256"
        }
      ],
      "outputs": [
        {
          "name": "month",
          "type": "uint256",
          "internalType": "uint256"
        }
      ],
      "stateMutability": "view"
    },
    {
      "type": "function",
      "name": "getRate",
      "inputs": [
        {
          "name": "_hotelId",
          "type": "uint256",
          "internalType": "uint256"
        }
      ],
      "outputs": [
        {
          "name": "",
          "type": "uint256",
          "internalType": "uint256"
        }
      ],
      "stateMutability": "view"
    },
    {
      "type": "function",
      "name": "getRatio",
      "inputs": [
        {
          "name": "_hotelId",
          "type": "uint256",
          "internalType": "uint256"
        }
      ],
      "outputs": [
        {
          "name": "",
          "type": "uint256",
          "internalType": "uint256"
        }
      ],
      "stateMutability": "view"
    },
    {
      "type": "function",
      "name": "getRemainingPromisedRevenues",
      "inputs": [
        {
          "name": "_hotelId",
          "type": "uint256",
          "internalType": "uint256"
        }
      ],
      "outputs": [
        {
          "name": "remainingRevs",
          "type": "uint256",
          "internalType": "uint256"
        }
      ],
      "stateMutability": "view"
    },
    {
      "type": "function",
      "name": "getTransferLimit",
      "inputs": [
        {
          "name": "_hotelId",
          "type": "uint256",
          "internalType": "uint256"
        }
      ],
      "outputs": [
        {
          "name": "limit",
          "type": "uint256",
          "internalType": "uint256"
        }
      ],
      "stateMutability": "view"
    },
    {
      "type": "function",
      "name": "getVaultAddress",
      "inputs": [
        {
          "name": "_hotelId",
          "type": "uint256",
          "internalType": "uint256"
        }
      ],
      "outputs": [
        {
          "name": "vaultAddress",
          "type": "address",
          "internalType": "address"
        }
      ],
      "stateMutability": "view"
    },
    {
      "type": "function",
      "name": "hotelRegistry",
      "inputs": [],
      "outputs": [
        {
          "name": "",
          "type": "address",
          "internalType": "contract LaLoHotelRegistry"
        }
      ],
      "stateMutability": "view"
    },
    {
      "type": "function",
      "name": "ownerDepositUSDC",
      "inputs": [
        {
          "name": "_hotelId",
          "type": "uint256",
          "internalType": "uint256"
        },
        {
          "name": "_depositInUSDC",
          "type": "uint256",
          "internalType": "uint256"
        }
      ],
      "outputs": [],
      "stateMutability": "nonpayable"
    },
    {
      "type": "function",
      "name": "setMonthTest",
      "inputs": [
        {
          "name": "_hotelId",
          "type": "uint256",
          "internalType": "uint256"
        },
        {
          "name": "_month",
          "type": "uint256",
          "internalType": "uint256"
        }
      ],
      "outputs": [],
      "stateMutability": "nonpayable"
    },
    {
      "type": "function",
      "name": "usdcToken",
      "inputs": [],
      "outputs": [
        {
          "name": "",
          "type": "address",
          "internalType": "contract IERC20"
        }
      ],
      "stateMutability": "view"
    },
    {
      "type": "function",
      "name": "withdrawUSDC",
      "inputs": [
        {
          "name": "_hotelId",
          "type": "uint256",
          "internalType": "uint256"
        },
        {
          "name": "_withdrawInUSDC",
          "type": "uint256",
          "internalType": "uint256"
        }
      ],
      "outputs": [],
      "stateMutability": "nonpayable"
    },
    {
      "type": "event",
      "name": "TokensBought",
      "inputs": [
        {
          "name": "hotelId",
          "type": "uint256",
          "indexed": true,
          "internalType": "uint256"
        },
        {
          "name": "buyer",
          "type": "address",
          "indexed": true,
          "internalType": "address"
        },
        {
          "name": "amount",
          "type": "uint256",
          "indexed": false,
          "internalType": "uint256"
        }
      ],
      "anonymous": false
    },
    {
      "type": "event",
      "name": "USDCDeposit",
      "inputs": [
        {
          "name": "hotelId",
          "type": "uint256",
          "indexed": true,
          "internalType": "uint256"
        },
        {
          "name": "user",
          "type": "address",
          "indexed": true,
          "internalType": "address"
        },
        {
          "name": "amount",
          "type": "uint256",
          "indexed": false,
          "internalType": "uint256"
        }
      ],
      "anonymous": false
    },
    {
      "type": "event",
      "name": "USDCWithdrawn",
      "inputs": [
        {
          "name": "hotelId",
          "type": "uint256",
          "indexed": true,
          "internalType": "uint256"
        },
        {
          "name": "user",
          "type": "address",
          "indexed": true,
          "internalType": "address"
        },
        {
          "name": "shares",
          "type": "uint256",
          "indexed": false,
          "internalType": "uint256"
        }
      ],
      "anonymous": false
    },
    {
      "type": "error",
      "name": "HotelNotRegistered",
      "inputs": []
    },
    {
      "type": "error",
      "name": "InsufficientSharesToWithdraw",
      "inputs": []
    },
    {
      "type": "error",
      "name": "LLOTTransferFailed",
      "inputs": []
    }
  ],
  "bytecode": {
    "object": "0x60806040523480156200001157600080fd5b5060405162001d9338038062001d9383398181016040528101906200003791906200012a565b816000806101000a81548173ffffffffffffffffffffffffffffffffffffffff021916908373ffffffffffffffffffffffffffffffffffffffff16021790555080600160006101000a81548173ffffffffffffffffffffffffffffffffffffffff021916908373ffffffffffffffffffffffffffffffffffffffff160217905550505062000171565b600080fd5b600073ffffffffffffffffffffffffffffffffffffffff82169050919050565b6000620000f282620000c5565b9050919050565b6200010481620000e5565b81146200011057600080fd5b50565b6000815190506200012481620000f9565b92915050565b60008060408385031215620001445762000143620000c0565b5b6000620001548582860162000113565b9250506020620001678582860162000113565b9150509250929050565b611c1280620001816000396000f3fe608060405234801561001057600080fd5b506004361061010b5760003560e01c806357764094116100a25780639187cb03116100715780639187cb03146102f0578063a65699f114610320578063c56108541461033c578063e005e77b1461036c578063e6bd26a21461039c5761010b565b8063577640941461025857806364a23efe1461028857806388e08665146102b85780638d591f91146102d45761010b565b806334a30cbb116100de57806334a30cbb14610198578063380ccbc6146101c857806346a62eaf146101f857806346cd5929146102285761010b565b806311eac8551461011057806314ba9c781461012e5780631aa1e6851461014c5780632d64949714610168575b600080fd5b6101186103cc565b60405161012591906118c9565b60405180910390f35b6101366103f0565b6040516101439190611905565b60405180910390f35b6101666004803603810190610161919061195b565b610416565b005b610182600480360381019061017d919061199b565b61052e565b60405161018f91906119d7565b60405180910390f35b6101b260048036038101906101ad919061199b565b610657565b6040516101bf91906119d7565b60405180910390f35b6101e260048036038101906101dd919061199b565b6107ee565b6040516101ef91906119d7565b60405180910390f35b610212600480360381019061020d919061199b565b61090c565b60405161021f91906119d7565b60405180910390f35b610242600480360381019061023d919061199b565b610a2a565b60405161024f91906119d7565b60405180910390f35b610272600480360381019061026d919061199b565b610b53565b60405161027f91906119d7565b60405180910390f35b6102a2600480360381019061029d919061199b565b610c71565b6040516102af91906119d7565b60405180910390f35b6102d260048036038101906102cd919061195b565b610d8f565b005b6102ee60048036038101906102e9919061195b565b610fca565b005b61030a6004803603810190610305919061199b565b611205565b60405161031791906119d7565b60405180910390f35b61033a6004803603810190610335919061195b565b611323565b005b6103566004803603810190610351919061199b565b61155e565b60405161036391906119d7565b60405180910390f35b6103866004803603810190610381919061199b565b61167c565b60405161039391906119d7565b60405180910390f35b6103b660048036038101906103b1919061199b565b6117a5565b6040516103c39190611a13565b60405180910390f35b60008054906101000a900473ffffffffffffffffffffffffffffffffffffffff1681565b600160009054906101000a900473ffffffffffffffffffffffffffffffffffffffff1681565b6000600160009054906101000a900473ffffffffffffffffffffffffffffffffffffffff1673ffffffffffffffffffffffffffffffffffffffff1663e6bd26a2846040518263ffffffff1660e01b815260040161047391906119d7565b602060405180830381865afa158015610490573d6000803e3d6000fd5b505050506040513d601f19601f820116820180604052508101906104b49190611a5a565b905060008190508073ffffffffffffffffffffffffffffffffffffffff1663e6c6f12c33856040518363ffffffff1660e01b81526004016104f6929190611a87565b600060405180830381600087803b15801561051057600080fd5b505af1158015610524573d6000803e3d6000fd5b5050505050505050565b600080600160009054906101000a900473ffffffffffffffffffffffffffffffffffffffff1673ffffffffffffffffffffffffffffffffffffffff1663e6bd26a2846040518263ffffffff1660e01b815260040161058c91906119d7565b602060405180830381865afa1580156105a9573d6000803e3d6000fd5b505050506040513d601f19601f820116820180604052508101906105cd9190611a5a565b905060008190508073ffffffffffffffffffffffffffffffffffffffff16635f515226336040518263ffffffff1660e01b815260040161060d9190611a13565b602060405180830381865afa15801561062a573d6000803e3d6000fd5b505050506040513d601f19601f8201168201806040525081019061064e9190611ac5565b92505050919050565b600080600160009054906101000a900473ffffffffffffffffffffffffffffffffffffffff1673ffffffffffffffffffffffffffffffffffffffff1663e6bd26a2846040518263ffffffff1660e01b81526004016106b591906119d7565b602060405180830381865afa1580156106d2573d6000803e3d6000fd5b505050506040513d601f19601f820116820180604052508101906106f69190611a5a565b905060008190508073ffffffffffffffffffffffffffffffffffffffff16630cbf54c86040518163ffffffff1660e01b8152600401602060405180830381865afa158015610748573d6000803e3d6000fd5b505050506040513d601f19601f8201168201806040525081019061076c9190611ac5565b8173ffffffffffffffffffffffffffffffffffffffff1663b30930cc6040518163ffffffff1660e01b8152600401602060405180830381865afa1580156107b7573d6000803e3d6000fd5b505050506040513d601f19601f820116820180604052508101906107db9190611ac5565b6107e59190611b21565b92505050919050565b600080600160009054906101000a900473ffffffffffffffffffffffffffffffffffffffff1673ffffffffffffffffffffffffffffffffffffffff1663e6bd26a2846040518263ffffffff1660e01b815260040161084c91906119d7565b602060405180830381865afa158015610869573d6000803e3d6000fd5b505050506040513d601f19601f8201168201806040525081019061088d9190611a5a565b905060008190508073ffffffffffffffffffffffffffffffffffffffff1663578dae4f6040518163ffffffff1660e01b8152600401602060405180830381865afa1580156108df573d6000803e3d6000fd5b505050506040513d601f19601f820116820180604052508101906109039190611ac5565b92505050919050565b600080600160009054906101000a900473ffffffffffffffffffffffffffffffffffffffff1673ffffffffffffffffffffffffffffffffffffffff1663e6bd26a2846040518263ffffffff1660e01b815260040161096a91906119d7565b602060405180830381865afa158015610987573d6000803e3d6000fd5b505050506040513d601f19601f820116820180604052508101906109ab9190611a5a565b905060008190508073ffffffffffffffffffffffffffffffffffffffff166371ca337d6040518163ffffffff1660e01b8152600401602060405180830381865afa1580156109fd573d6000803e3d6000fd5b505050506040513d601f19601f82011682018060405250810190610a219190611ac5565b92505050919050565b600080600160009054906101000a900473ffffffffffffffffffffffffffffffffffffffff1673ffffffffffffffffffffffffffffffffffffffff1663e6bd26a2846040518263ffffffff1660e01b8152600401610a8891906119d7565b602060405180830381865afa158015610aa5573d6000803e3d6000fd5b505050506040513d601f19601f82011682018060405250810190610ac99190611a5a565b905060008190508073ffffffffffffffffffffffffffffffffffffffff16635edf9e61336040518263ffffffff1660e01b8152600401610b099190611a13565b602060405180830381865afa158015610b26573d6000803e3d6000fd5b505050506040513d601f19601f82011682018060405250810190610b4a9190611ac5565b92505050919050565b600080600160009054906101000a900473ffffffffffffffffffffffffffffffffffffffff1673ffffffffffffffffffffffffffffffffffffffff1663e6bd26a2846040518263ffffffff1660e01b8152600401610bb191906119d7565b602060405180830381865afa158015610bce573d6000803e3d6000fd5b505050506040513d601f19601f82011682018060405250810190610bf29190611a5a565b905060008190508073ffffffffffffffffffffffffffffffffffffffff16632c4e722e6040518163ffffffff1660e01b8152600401602060405180830381865afa158015610c44573d6000803e3d6000fd5b505050506040513d601f19601f82011682018060405250810190610c689190611ac5565b92505050919050565b600080600160009054906101000a900473ffffffffffffffffffffffffffffffffffffffff1673ffffffffffffffffffffffffffffffffffffffff1663e6bd26a2846040518263ffffffff1660e01b8152600401610ccf91906119d7565b602060405180830381865afa158015610cec573d6000803e3d6000fd5b505050506040513d601f19601f82011682018060405250810190610d109190611a5a565b905060008190508073ffffffffffffffffffffffffffffffffffffffff16639b4f19c66040518163ffffffff1660e01b8152600401602060405180830381865afa158015610d62573d6000803e3d6000fd5b505050506040513d601f19601f82011682018060405250810190610d869190611ac5565b92505050919050565b81600160009054906101000a900473ffffffffffffffffffffffffffffffffffffffff1673ffffffffffffffffffffffffffffffffffffffff16638e9d3094826040518263ffffffff1660e01b8152600401610deb91906119d7565b602060405180830381865afa158015610e08573d6000803e3d6000fd5b505050506040513d601f19601f82011682018060405250810190610e2c9190611baf565b610e62576040517f27b041fd00000000000000000000000000000000000000000000000000000000815260040160405180910390fd5b6000600160009054906101000a900473ffffffffffffffffffffffffffffffffffffffff1673ffffffffffffffffffffffffffffffffffffffff1663e6bd26a2856040518263ffffffff1660e01b8152600401610ebf91906119d7565b602060405180830381865afa158015610edc573d6000803e3d6000fd5b505050506040513d601f19601f82011682018060405250810190610f009190611a5a565b905060008190508073ffffffffffffffffffffffffffffffffffffffff1663f3fef3a333866040518363ffffffff1660e01b8152600401610f42929190611a87565b600060405180830381600087803b158015610f5c57600080fd5b505af1158015610f70573d6000803e3d6000fd5b505050503373ffffffffffffffffffffffffffffffffffffffff16857fc97cf3039f594c8da814b88e53e8c8d9c46d4535a2670d2ba5f71959adf2760586604051610fbb91906119d7565b60405180910390a35050505050565b81600160009054906101000a900473ffffffffffffffffffffffffffffffffffffffff1673ffffffffffffffffffffffffffffffffffffffff16638e9d3094826040518263ffffffff1660e01b815260040161102691906119d7565b602060405180830381865afa158015611043573d6000803e3d6000fd5b505050506040513d601f19601f820116820180604052508101906110679190611baf565b61109d576040517f27b041fd00000000000000000000000000000000000000000000000000000000815260040160405180910390fd5b6000600160009054906101000a900473ffffffffffffffffffffffffffffffffffffffff1673ffffffffffffffffffffffffffffffffffffffff1663e6bd26a2856040518263ffffffff1660e01b81526004016110fa91906119d7565b602060405180830381865afa158015611117573d6000803e3d6000fd5b505050506040513d601f19601f8201168201806040525081019061113b9190611a5a565b905060008190508073ffffffffffffffffffffffffffffffffffffffff166347e7ef2433866040518363ffffffff1660e01b815260040161117d929190611a87565b600060405180830381600087803b15801561119757600080fd5b505af11580156111ab573d6000803e3d6000fd5b505050503373ffffffffffffffffffffffffffffffffffffffff16857fc97cf3039f594c8da814b88e53e8c8d9c46d4535a2670d2ba5f71959adf27605866040516111f691906119d7565b60405180910390a35050505050565b600080600160009054906101000a900473ffffffffffffffffffffffffffffffffffffffff1673ffffffffffffffffffffffffffffffffffffffff1663e6bd26a2846040518263ffffffff1660e01b815260040161126391906119d7565b602060405180830381865afa158015611280573d6000803e3d6000fd5b505050506040513d601f19601f820116820180604052508101906112a49190611a5a565b905060008190508073ffffffffffffffffffffffffffffffffffffffff1663e35568cb6040518163ffffffff1660e01b8152600401602060405180830381865afa1580156112f6573d6000803e3d6000fd5b505050506040513d601f19601f8201168201806040525081019061131a9190611ac5565b92505050919050565b81600160009054906101000a900473ffffffffffffffffffffffffffffffffffffffff1673ffffffffffffffffffffffffffffffffffffffff16638e9d3094826040518263ffffffff1660e01b815260040161137f91906119d7565b602060405180830381865afa15801561139c573d6000803e3d6000fd5b505050506040513d601f19601f820116820180604052508101906113c09190611baf565b6113f6576040517f27b041fd00000000000000000000000000000000000000000000000000000000815260040160405180910390fd5b6000600160009054906101000a900473ffffffffffffffffffffffffffffffffffffffff1673ffffffffffffffffffffffffffffffffffffffff1663e6bd26a2856040518263ffffffff1660e01b815260040161145391906119d7565b602060405180830381865afa158015611470573d6000803e3d6000fd5b505050506040513d601f19601f820116820180604052508101906114949190611a5a565b905060008190508073ffffffffffffffffffffffffffffffffffffffff16636945b12333866040518363ffffffff1660e01b81526004016114d6929190611a87565b600060405180830381600087803b1580156114f057600080fd5b505af1158015611504573d6000803e3d6000fd5b505050503373ffffffffffffffffffffffffffffffffffffffff16857fe6097132eb453030fc61413d25e83714650c696033355fb29680d060df389c658660405161154f91906119d7565b60405180910390a35050505050565b600080600160009054906101000a900473ffffffffffffffffffffffffffffffffffffffff1673ffffffffffffffffffffffffffffffffffffffff1663e6bd26a2846040518263ffffffff1660e01b81526004016115bc91906119d7565b602060405180830381865afa1580156115d9573d6000803e3d6000fd5b505050506040513d601f19601f820116820180604052508101906115fd9190611a5a565b905060008190508073ffffffffffffffffffffffffffffffffffffffff1663a79a7f6d6040518163ffffffff1660e01b8152600401602060405180830381865afa15801561164f573d6000803e3d6000fd5b505050506040513d601f19601f820116820180604052508101906116739190611ac5565b92505050919050565b600080600160009054906101000a900473ffffffffffffffffffffffffffffffffffffffff1673ffffffffffffffffffffffffffffffffffffffff1663e6bd26a2846040518263ffffffff1660e01b81526004016116da91906119d7565b602060405180830381865afa1580156116f7573d6000803e3d6000fd5b505050506040513d601f19601f8201168201806040525081019061171b9190611a5a565b905060008190508073ffffffffffffffffffffffffffffffffffffffff16633f795cc0336040518263ffffffff1660e01b815260040161175b9190611a13565b602060405180830381865afa158015611778573d6000803e3d6000fd5b505050506040513d601f19601f8201168201806040525081019061179c9190611ac5565b92505050919050565b6000600160009054906101000a900473ffffffffffffffffffffffffffffffffffffffff1673ffffffffffffffffffffffffffffffffffffffff1663e6bd26a2836040518263ffffffff1660e01b815260040161180291906119d7565b602060405180830381865afa15801561181f573d6000803e3d6000fd5b505050506040513d601f19601f820116820180604052508101906118439190611a5a565b9050919050565b600073ffffffffffffffffffffffffffffffffffffffff82169050919050565b6000819050919050565b600061188f61188a6118858461184a565b61186a565b61184a565b9050919050565b60006118a182611874565b9050919050565b60006118b382611896565b9050919050565b6118c3816118a8565b82525050565b60006020820190506118de60008301846118ba565b92915050565b60006118ef82611896565b9050919050565b6118ff816118e4565b82525050565b600060208201905061191a60008301846118f6565b92915050565b600080fd5b6000819050919050565b61193881611925565b811461194357600080fd5b50565b6000813590506119558161192f565b92915050565b6000806040838503121561197257611971611920565b5b600061198085828601611946565b925050602061199185828601611946565b9150509250929050565b6000602082840312156119b1576119b0611920565b5b60006119bf84828501611946565b91505092915050565b6119d181611925565b82525050565b60006020820190506119ec60008301846119c8565b92915050565b60006119fd8261184a565b9050919050565b611a0d816119f2565b82525050565b6000602082019050611a286000830184611a04565b92915050565b611a37816119f2565b8114611a4257600080fd5b50565b600081519050611a5481611a2e565b92915050565b600060208284031215611a7057611a6f611920565b5b6000611a7e84828501611a45565b91505092915050565b6000604082019050611a9c6000830185611a04565b611aa960208301846119c8565b9392505050565b600081519050611abf8161192f565b92915050565b600060208284031215611adb57611ada611920565b5b6000611ae984828501611ab0565b91505092915050565b7f4e487b7100000000000000000000000000000000000000000000000000000000600052601160045260246000fd5b6000611b2c82611925565b9150611b3783611925565b9250827fffffffffffffffffffffffffffffffffffffffffffffffffffffffffffffffff03821115611b6c57611b6b611af2565b5b828201905092915050565b60008115159050919050565b611b8c81611b77565b8114611b9757600080fd5b50565b600081519050611ba981611b83565b92915050565b600060208284031215611bc557611bc4611920565b5b6000611bd384828501611b9a565b9150509291505056fea2646970667358221220f1ecc92ce179e61fe71fafb1889f6303ac6a72837845a24ce0f7e9e45b22d15b64736f6c634300080d0033",
    "linkReferences": {}
  },
  "methodIdentifiers": {
    "buyLaLoTokens(uint256,uint256)": "a65699f1",
    "getAuctionEndDate(uint256)": "34a30cbb",
    "getAvailableRevenues(uint256)": "380ccbc6",
    "getAvailableTokens(uint256)": "9187cb03",
    "getCollectedRevenues(uint256)": "e005e77b",
    "getCurrentTokens(uint256)": "2d649497",
    "getMonthTest(uint256)": "64a23efe",
    "getRate(uint256)": "57764094",
    "getRatio(uint256)": "46a62eaf",
    "getRemainingPromisedRevenues(uint256)": "c5610854",
    "getTransferLimit(uint256)": "46cd5929",
    "getVaultAddress(uint256)": "e6bd26a2",
    "hotelRegistry()": "14ba9c78",
    "ownerDepositUSDC(uint256,uint256)": "8d591f91",
    "setMonthTest(uint256,uint256)": "1aa1e685",
    "usdcToken()": "11eac855",
    "withdrawUSDC(uint256,uint256)": "88e08665"
  },
  "id": 27
}