{
  "abi": [
    {
      "type": "constructor",
      "inputs": [
        {
          "name": "_usdcToken",
          "type": "address",
          "internalType": "address"
        },
        {
          "name": "_tokenFactory",
          "type": "address",
          "internalType": "address"
        }
      ],
      "stateMutability": "nonpayable"
    },
    {
      "type": "function",
      "name": "getVaultAddress",
      "inputs": [
        {
          "name": "_hotelId",
          "type": "uint256",
          "internalType": "uint256"
        }
      ],
      "outputs": [
        {
          "name": "",
          "type": "address",
          "internalType": "address"
        }
      ],
      "stateMutability": "view"
    },
    {
      "type": "function",
      "name": "hotels",
      "inputs": [
        {
          "name": "",
          "type": "uint256",
          "internalType": "uint256"
        }
      ],
      "outputs": [
        {
          "name": "owner",
          "type": "address",
          "internalType": "address"
        },
        {
          "name": "name",
          "type": "string",
          "internalType": "string"
        },
        {
          "name": "vaultAddress",
          "type": "address",
          "internalType": "address"
        }
      ],
      "stateMutability": "view"
    },
    {
      "type": "function",
      "name": "isHotelRegistered",
      "inputs": [
        {
          "name": "_hotelId",
          "type": "uint256",
          "internalType": "uint256"
        }
      ],
      "outputs": [
        {
          "name": "",
          "type": "bool",
          "internalType": "bool"
        }
      ],
      "stateMutability": "view"
    },
    {
      "type": "function",
      "name": "isRegisteredHotel",
      "inputs": [
        {
          "name": "",
          "type": "uint256",
          "internalType": "uint256"
        }
      ],
      "outputs": [
        {
          "name": "",
          "type": "bool",
          "internalType": "bool"
        }
      ],
      "stateMutability": "view"
    },
    {
      "type": "function",
      "name": "nextHotelId",
      "inputs": [],
      "outputs": [
        {
          "name": "",
          "type": "uint256",
          "internalType": "uint256"
        }
      ],
      "stateMutability": "view"
    },
    {
      "type": "function",
      "name": "registerHotel",
      "inputs": [
        {
          "name": "_name",
          "type": "string",
          "internalType": "string"
        },
        {
          "name": "_tokenAmount",
          "type": "uint256",
          "internalType": "uint256"
        },
        {
          "name": "_usdcPrice",
          "type": "uint256",
          "internalType": "uint256"
        },
        {
          "name": "_totalMonth",
          "type": "uint256",
          "internalType": "uint256"
        },
        {
          "name": "_auctionDuration",
          "type": "uint256",
          "internalType": "uint256"
        }
      ],
      "outputs": [],
      "stateMutability": "nonpayable"
    },
    {
      "type": "function",
      "name": "tokenFactory",
      "inputs": [],
      "outputs": [
        {
          "name": "",
          "type": "address",
          "internalType": "contract LaLoTokenFactory"
        }
      ],
      "stateMutability": "view"
    },
    {
      "type": "function",
      "name": "usdcToken",
      "inputs": [],
      "outputs": [
        {
          "name": "",
          "type": "address",
          "internalType": "contract IERC20"
        }
      ],
      "stateMutability": "view"
    },
    {
      "type": "event",
      "name": "HotelRegistered",
      "inputs": [
        {
          "name": "hotelId",
          "type": "uint256",
          "indexed": false,
          "internalType": "uint256"
        },
        {
          "name": "name",
          "type": "string",
          "indexed": false,
          "internalType": "string"
        },
        {
          "name": "vaultAddress",
          "type": "address",
          "indexed": false,
          "internalType": "address"
        }
      ],
      "anonymous": false
    },
    {
      "type": "error",
      "name": "HotelNotRegistered",
      "inputs": []
    },
    {
      "type": "error",
      "name": "InvalidSellingRate",
      "inputs": [
        {
          "name": "tokenAmount",
          "type": "uint256",
          "internalType": "uint256"
        },
        {
          "name": "usdcPrice",
          "type": "uint256",
          "internalType": "uint256"
        }
      ]
    },
    {
      "type": "error",
      "name": "UnauthorizedHotelOwner",
      "inputs": []
    },
    {
      "type": "error",
      "name": "ZeroAmount",
      "inputs": []
    }
  ],
  "bytecode": {
    "object": "0x60806040523480156200001157600080fd5b506040516200435c3803806200435c83398181016040528101906200003791906200012a565b816000806101000a81548173ffffffffffffffffffffffffffffffffffffffff021916908373ffffffffffffffffffffffffffffffffffffffff16021790555080600160006101000a81548173ffffffffffffffffffffffffffffffffffffffff021916908373ffffffffffffffffffffffffffffffffffffffff160217905550505062000171565b600080fd5b600073ffffffffffffffffffffffffffffffffffffffff82169050919050565b6000620000f282620000c5565b9050919050565b6200010481620000e5565b81146200011057600080fd5b50565b6000815190506200012481620000f9565b92915050565b60008060408385031215620001445762000143620000c0565b5b6000620001548582860162000113565b9250506020620001678582860162000113565b9150509250929050565b6141db80620001816000396000f3fe60806040523480156200001157600080fd5b5060043610620000945760003560e01c8063cd3382651162000063578063cd3382651462000133578063e6bd26a2146200016b578063e77772fe14620001a1578063ee5fd77d14620001c35762000094565b806311eac85514620000995780634cf4576214620000bb5780638e4412bb14620000db5780638e9d309414620000fd575b600080fd5b620000a3620001f9565b604051620000b2919062000801565b60405180910390f35b620000d96004803603810190620000d39190620009cf565b6200021d565b005b620000e562000508565b604051620000f4919062000a87565b60405180910390f35b6200011b600480360381019062000115919062000aa4565b6200050e565b6040516200012a919062000af3565b60405180910390f35b6200015160048036038101906200014b919062000aa4565b62000538565b604051620001629392919062000bc8565b60405180910390f35b62000189600480360381019062000183919062000aa4565b62000632565b60405162000198919062000c0c565b60405180910390f35b620001ab62000672565b604051620001ba919062000c4e565b60405180910390f35b620001e16004803603810190620001db919062000aa4565b62000698565b604051620001f0919062000af3565b60405180910390f35b60008054906101000a900473ffffffffffffffffffffffffffffffffffffffff1681565b60008414806200022d5750600083145b1562000265576040517f1f2a200500000000000000000000000000000000000000000000000000000000815260040160405180910390fd5b6000670de0b6b3a76400009050600084828762000283919062000c9a565b6200028f919062000d2a565b905085851115620002db5785856040517fdb6560fa000000000000000000000000000000000000000000000000000000008152600401620002d292919062000d62565b60405180910390fd5b60008060009054906101000a900473ffffffffffffffffffffffffffffffffffffffff16600160009054906101000a900473ffffffffffffffffffffffffffffffffffffffff16883385878a8d8b6040516200033790620006b8565b6200034b9998979695949392919062000d8f565b604051809103906000f08015801562000368573d6000803e3d6000fd5b50905060405180606001604052803373ffffffffffffffffffffffffffffffffffffffff1681526020018981526020018273ffffffffffffffffffffffffffffffffffffffff1681525060026000600454815260200190815260200160002060008201518160000160006101000a81548173ffffffffffffffffffffffffffffffffffffffff021916908373ffffffffffffffffffffffffffffffffffffffff16021790555060208201518160010190805190602001906200042c929190620006c6565b5060408201518160020160006101000a81548173ffffffffffffffffffffffffffffffffffffffff021916908373ffffffffffffffffffffffffffffffffffffffff160217905550905050600160036000600454815260200190815260200160002060006101000a81548160ff0219169083151502179055507f7e274df05619782a1a47dddfc2b9e1356c1eb97019c8d64c229da23cdbe4ec7b6004548983604051620004dc9392919062000e2e565b60405180910390a160046000815480929190620004f99062000e72565b91905055505050505050505050565b60045481565b60006003600083815260200190815260200160002060009054906101000a900460ff169050919050565b60026020528060005260406000206000915090508060000160009054906101000a900473ffffffffffffffffffffffffffffffffffffffff1690806001018054620005839062000eee565b80601f0160208091040260200160405190810160405280929190818152602001828054620005b19062000eee565b8015620006025780601f10620005d65761010080835404028352916020019162000602565b820191906000526020600020905b815481529060010190602001808311620005e457829003601f168201915b5050505050908060020160009054906101000a900473ffffffffffffffffffffffffffffffffffffffff16905083565b60006002600083815260200190815260200160002060020160009054906101000a900473ffffffffffffffffffffffffffffffffffffffff169050919050565b600160009054906101000a900473ffffffffffffffffffffffffffffffffffffffff1681565b60036020528060005260406000206000915054906101000a900460ff1681565b6132828062000f2483390190565b828054620006d49062000eee565b90600052602060002090601f016020900481019282620006f8576000855562000744565b82601f106200071357805160ff191683800117855562000744565b8280016001018555821562000744579182015b828111156200074357825182559160200191906001019062000726565b5b50905062000753919062000757565b5090565b5b808211156200077257600081600090555060010162000758565b5090565b600073ffffffffffffffffffffffffffffffffffffffff82169050919050565b6000819050919050565b6000620007c1620007bb620007b58462000776565b62000796565b62000776565b9050919050565b6000620007d582620007a0565b9050919050565b6000620007e982620007c8565b9050919050565b620007fb81620007dc565b82525050565b6000602082019050620008186000830184620007f0565b92915050565b6000604051905090565b600080fd5b600080fd5b600080fd5b600080fd5b6000601f19601f8301169050919050565b7f4e487b7100000000000000000000000000000000000000000000000000000000600052604160045260246000fd5b62000887826200083c565b810181811067ffffffffffffffff82111715620008a957620008a86200084d565b5b80604052505050565b6000620008be6200081e565b9050620008cc82826200087c565b919050565b600067ffffffffffffffff821115620008ef57620008ee6200084d565b5b620008fa826200083c565b9050602081019050919050565b82818337600083830152505050565b60006200092d6200092784620008d1565b620008b2565b9050828152602081018484840111156200094c576200094b62000837565b5b6200095984828562000907565b509392505050565b600082601f83011262000979576200097862000832565b5b81356200098b84826020860162000916565b91505092915050565b6000819050919050565b620009a98162000994565b8114620009b557600080fd5b50565b600081359050620009c9816200099e565b92915050565b600080600080600060a08688031215620009ee57620009ed62000828565b5b600086013567ffffffffffffffff81111562000a0f5762000a0e6200082d565b5b62000a1d8882890162000961565b955050602062000a3088828901620009b8565b945050604062000a4388828901620009b8565b935050606062000a5688828901620009b8565b925050608062000a6988828901620009b8565b9150509295509295909350565b62000a818162000994565b82525050565b600060208201905062000a9e600083018462000a76565b92915050565b60006020828403121562000abd5762000abc62000828565b5b600062000acd84828501620009b8565b91505092915050565b60008115159050919050565b62000aed8162000ad6565b82525050565b600060208201905062000b0a600083018462000ae2565b92915050565b600062000b1d8262000776565b9050919050565b62000b2f8162000b10565b82525050565b600081519050919050565b600082825260208201905092915050565b60005b8381101562000b7157808201518184015260208101905062000b54565b8381111562000b81576000848401525b50505050565b600062000b948262000b35565b62000ba0818562000b40565b935062000bb281856020860162000b51565b62000bbd816200083c565b840191505092915050565b600060608201905062000bdf600083018662000b24565b818103602083015262000bf3818562000b87565b905062000c04604083018462000b24565b949350505050565b600060208201905062000c23600083018462000b24565b92915050565b600062000c3682620007c8565b9050919050565b62000c488162000c29565b82525050565b600060208201905062000c65600083018462000c3d565b92915050565b7f4e487b7100000000000000000000000000000000000000000000000000000000600052601160045260246000fd5b600062000ca78262000994565b915062000cb48362000994565b9250817fffffffffffffffffffffffffffffffffffffffffffffffffffffffffffffffff048311821515161562000cf05762000cef62000c6b565b5b828202905092915050565b7f4e487b7100000000000000000000000000000000000000000000000000000000600052601260045260246000fd5b600062000d378262000994565b915062000d448362000994565b92508262000d575762000d5662000cfb565b5b828204905092915050565b600060408201905062000d79600083018562000a76565b62000d88602083018462000a76565b9392505050565b60006101208201905062000da7600083018c62000b24565b62000db6602083018b62000c3d565b62000dc5604083018a62000a76565b62000dd4606083018962000b24565b62000de3608083018862000a76565b62000df260a083018762000a76565b62000e0160c083018662000a76565b62000e1060e083018562000a76565b62000e2061010083018462000a76565b9a9950505050505050505050565b600060608201905062000e45600083018662000a76565b818103602083015262000e59818562000b87565b905062000e6a604083018462000b24565b949350505050565b600062000e7f8262000994565b91507fffffffffffffffffffffffffffffffffffffffffffffffffffffffffffffffff820362000eb45762000eb362000c6b565b5b600182019050919050565b7f4e487b7100000000000000000000000000000000000000000000000000000000600052602260045260246000fd5b6000600282049050600182168062000f0757607f821691505b60208210810362000f1d5762000f1c62000ebf565b5b5091905056fe6101a06040523480156200001257600080fd5b5060405162003282380380620032828339818101604052810190620000389190620003fc565b6040518060400160405280600981526020017f4c614c6f5661756c7400000000000000000000000000000000000000000000008152506040518060400160405280600481526020017f4c4c4f56000000000000000000000000000000000000000000000000000000008152508160039080519060200190620000bc92919062000262565b508060049080519060200190620000d592919062000262565b50505060008873ffffffffffffffffffffffffffffffffffffffff16637e3b6d68896040518263ffffffff1660e01b8152600401620001159190620004ec565b6020604051808303816000875af115801562000135573d6000803e3d6000fd5b505050506040513d601f19601f820116820180604052508101906200015b919062000509565b90508973ffffffffffffffffffffffffffffffffffffffff1660808173ffffffffffffffffffffffffffffffffffffffff16815250508073ffffffffffffffffffffffffffffffffffffffff1660a08173ffffffffffffffffffffffffffffffffffffffff168152505086600860006101000a81548173ffffffffffffffffffffffffffffffffffffffff021916908373ffffffffffffffffffffffffffffffffffffffff1602179055508560c081815250508460e08181525050836101808181525050826101608181525050426101208181525050876101008181525050876005819055508161014081815250506000600781905550505050505050505050506200059f565b82805462000270906200056a565b90600052602060002090601f016020900481019282620002945760008555620002e0565b82601f10620002af57805160ff1916838001178555620002e0565b82800160010185558215620002e0579182015b82811115620002df578251825591602001919060010190620002c2565b5b509050620002ef9190620002f3565b5090565b5b808211156200030e576000816000905550600101620002f4565b5090565b600080fd5b600073ffffffffffffffffffffffffffffffffffffffff82169050919050565b6000620003448262000317565b9050919050565b620003568162000337565b81146200036257600080fd5b50565b60008151905062000376816200034b565b92915050565b6000620003898262000337565b9050919050565b6200039b816200037c565b8114620003a757600080fd5b50565b600081519050620003bb8162000390565b92915050565b6000819050919050565b620003d681620003c1565b8114620003e257600080fd5b50565b600081519050620003f681620003cb565b92915050565b60008060008060008060008060006101208a8c03121562000422576200042162000312565b5b6000620004328c828d0162000365565b9950506020620004458c828d01620003aa565b9850506040620004588c828d01620003e5565b97505060606200046b8c828d0162000365565b96505060806200047e8c828d01620003e5565b95505060a0620004918c828d01620003e5565b94505060c0620004a48c828d01620003e5565b93505060e0620004b78c828d01620003e5565b925050610100620004cb8c828d01620003e5565b9150509295985092959850929598565b620004e681620003c1565b82525050565b6000602082019050620005036000830184620004db565b92915050565b60006020828403121562000522576200052162000312565b5b6000620005328482850162000365565b91505092915050565b7f4e487b7100000000000000000000000000000000000000000000000000000000600052602260045260246000fd5b600060028204905060018216806200058357607f821691505b6020821081036200059957620005986200053b565b5b50919050565b60805160a05160c05160e0516101005161012051610140516101605161018051612bc3620006bf60003960008181610d0501528181610d2d01528181610d74015281816115df015281816118ac01526118d4015260008181610e5901526116cd0152600081816107a50152610f91015260008181610cbd01528181610fb20152818161159001526116a90152600061156501526000818161110d015261147101526000818161084e015261112e0152600081816107f9015281816108b201528181610bd701528181610daf01528181610eb30152818161102801528181611168015281816113480152818161177a015261197e0152600081816107c901528181610a3a01528181610b350152818161124d0152611b370152612bc36000f3fe608060405234801561001057600080fd5b50600436106102115760003560e01c806370a0823111610125578063a457c2d7116100ad578063bf2d9e0b1161007c578063bf2d9e0b1461064a578063dd62ed3e14610668578063e35568cb14610698578063e6c6f12c146106b6578063f3fef3a3146106d257610211565b8063a457c2d7146105ae578063a79a7f6d146105de578063a9059cbb146105fc578063b30930cc1461062c57610211565b806395d89b41116100f457806395d89b4114610518578063963f7cb5146105365780639b4f19c6146105545780639f06590614610572578063a00e66d71461059057610211565b806370a082311461047c57806371ca337d146104ac57806384fb20a0146104ca5780638da5cb5b146104fa57610211565b8063313ce567116101a857806347e7ef241161017757806347e7ef24146103c6578063578dae4f146103e25780635edf9e61146104005780635f515226146104305780636945b1231461046057610211565b8063313ce5671461032a57806339509351146103485780633cf7dcba146103785780633f795cc01461039657610211565b806318160ddd116101e457806318160ddd146102a057806321df0da7146102be57806323b872dd146102dc5780632c4e722e1461030c57610211565b806306fdde0314610216578063095ea7b3146102345780630cbf54c81461026457806311eac85514610282575b600080fd5b61021e6106ee565b60405161022b919061218c565b60405180910390f35b61024e60048036038101906102499190612247565b610780565b60405161025b91906122a2565b60405180910390f35b61026c6107a3565b60405161027991906122cc565b60405180910390f35b61028a6107c7565b6040516102979190612346565b60405180910390f35b6102a86107eb565b6040516102b591906122cc565b60405180910390f35b6102c66107f5565b6040516102d39190612382565b60405180910390f35b6102f660048036038101906102f1919061239d565b61081d565b60405161030391906122a2565b60405180910390f35b61031461084c565b60405161032191906122cc565b60405180910390f35b610332610870565b60405161033f919061240c565b60405180910390f35b610362600480360381019061035d9190612247565b610879565b60405161036f91906122a2565b60405180910390f35b6103806108b0565b60405161038d9190612382565b60405180910390f35b6103b060048036038101906103ab9190612427565b6108d4565b6040516103bd91906122cc565b60405180910390f35b6103e060048036038101906103db9190612247565b61091d565b005b6103ea610b31565b6040516103f791906122cc565b60405180910390f35b61041a60048036038101906104159190612427565b610bd2565b60405161042791906122cc565b60405180910390f35b61044a60048036038101906104459190612427565b610eaf565b60405161045791906122cc565b60405180910390f35b61047a60048036038101906104759190612247565b610f52565b005b61049660048036038101906104919190612427565b611427565b6040516104a391906122cc565b60405180910390f35b6104b461146f565b6040516104c191906122cc565b60405180910390f35b6104e460048036038101906104df9190612427565b611493565b6040516104f191906122cc565b60405180910390f35b6105026114ab565b60405161050f9190612463565b60405180910390f35b6105206114d1565b60405161052d919061218c565b60405180910390f35b61053e611563565b60405161054b91906122cc565b60405180910390f35b61055c611587565b60405161056991906122cc565b60405180910390f35b61057a6115dd565b60405161058791906122cc565b60405180910390f35b610598611601565b6040516105a591906122cc565b60405180910390f35b6105c860048036038101906105c39190612247565b611607565b6040516105d591906122a2565b60405180910390f35b6105e661167e565b6040516105f391906122cc565b60405180910390f35b61061660048036038101906106119190612247565b611684565b60405161062391906122a2565b60405180910390f35b6106346116a7565b60405161064191906122cc565b60405180910390f35b6106526116cb565b60405161065f91906122cc565b60405180910390f35b610682600480360381019061067d919061247e565b6116ef565b60405161068f91906122cc565b60405180910390f35b6106a0611776565b6040516106ad91906122cc565b60405180910390f35b6106d060048036038101906106cb9190612247565b611817565b005b6106ec60048036038101906106e79190612247565b61193d565b005b6060600380546106fd906124ed565b80601f0160208091040260200160405190810160405280929190818152602001828054610729906124ed565b80156107765780601f1061074b57610100808354040283529160200191610776565b820191906000526020600020905b81548152906001019060200180831161075957829003601f168201915b5050505050905090565b60008061078b611c16565b9050610798818585611c1e565b600191505092915050565b7f000000000000000000000000000000000000000000000000000000000000000081565b7f000000000000000000000000000000000000000000000000000000000000000081565b6000600254905090565b60007f0000000000000000000000000000000000000000000000000000000000000000905090565b600080610828611c16565b9050610835858285611de7565b610840858585611e73565b60019150509392505050565b7f000000000000000000000000000000000000000000000000000000000000000081565b60006012905090565b600080610884611c16565b90506108a581858561089685896116ef565b6108a0919061254d565b611c1e565b600191505092915050565b7f000000000000000000000000000000000000000000000000000000000000000081565b6000600660008373ffffffffffffffffffffffffffffffffffffffff1673ffffffffffffffffffffffffffffffffffffffff168152602001908152602001600020549050919050565b81600860009054906101000a900473ffffffffffffffffffffffffffffffffffffffff1673ffffffffffffffffffffffffffffffffffffffff168173ffffffffffffffffffffffffffffffffffffffff16146109b057806040517f245aecd30000000000000000000000000000000000000000000000000000000081526004016109a79190612463565b60405180910390fd5b81600081036109eb576040517f1f2a200500000000000000000000000000000000000000000000000000000000815260040160405180910390fd5b600554831115610a3657600554836040517fdf6079b7000000000000000000000000000000000000000000000000000000008152600401610a2d9291906125a3565b60405180910390fd5b60007f000000000000000000000000000000000000000000000000000000000000000073ffffffffffffffffffffffffffffffffffffffff166323b872dd8630876040518463ffffffff1660e01b8152600401610a95939291906125cc565b6020604051808303816000875af1158015610ab4573d6000803e3d6000fd5b505050506040513d601f19601f82011682018060405250810190610ad8919061262f565b905080610b11576040517f90b8ec1800000000000000000000000000000000000000000000000000000000815260040160405180910390fd5b8360056000828254610b23919061265c565b925050819055505050505050565b60007f000000000000000000000000000000000000000000000000000000000000000073ffffffffffffffffffffffffffffffffffffffff166370a08231306040518263ffffffff1660e01b8152600401610b8c9190612463565b602060405180830381865afa158015610ba9573d6000803e3d6000fd5b505050506040513d601f19601f82011682018060405250810190610bcd91906126a5565b905090565b6000807f000000000000000000000000000000000000000000000000000000000000000073ffffffffffffffffffffffffffffffffffffffff166370a08231846040518263ffffffff1660e01b8152600401610c2e9190612463565b602060405180830381865afa158015610c4b573d6000803e3d6000fd5b505050506040513d601f19601f82011682018060405250810190610c6f91906126a5565b90506000600660008573ffffffffffffffffffffffffffffffffffffffff1673ffffffffffffffffffffffffffffffffffffffff168152602001908152602001600020549050600062278d007f000000000000000000000000000000000000000000000000000000000000000042610ce7919061265c565b610cf19190612701565b905060075481610d01919061254d565b90507f0000000000000000000000000000000000000000000000000000000000000000811115610d4f577f000000000000000000000000000000000000000000000000000000000000000090505b6000670de0b6b3a7640000905060006ec097ce7bc90715b34b9f1000000000905060007f00000000000000000000000000000000000000000000000000000000000000008385610d9f9190612732565b610da99190612701565b905060007f000000000000000000000000000000000000000000000000000000000000000073ffffffffffffffffffffffffffffffffffffffff166318160ddd6040518163ffffffff1660e01b8152600401602060405180830381865afa158015610e18573d6000803e3d6000fd5b505050506040513d601f19601f82011682018060405250810190610e3c91906126a5565b8488610e489190612732565b610e529190612701565b90508583827f000000000000000000000000000000000000000000000000000000000000000085610e839190612732565b610e8d9190612732565b610e979190612701565b610ea1919061265c565b975050505050505050919050565b60007f000000000000000000000000000000000000000000000000000000000000000073ffffffffffffffffffffffffffffffffffffffff166370a08231836040518263ffffffff1660e01b8152600401610f0a9190612463565b602060405180830381865afa158015610f27573d6000803e3d6000fd5b505050506040513d601f19601f82011682018060405250810190610f4b91906126a5565b9050919050565b8060008103610f8d576040517f1f2a200500000000000000000000000000000000000000000000000000000000815260040160405180910390fd5b60007f00000000000000000000000000000000000000000000000000000000000000007f0000000000000000000000000000000000000000000000000000000000000000610fdb919061254d565b9050428110156110245780426040517f6e285ad800000000000000000000000000000000000000000000000000000000815260040161101b9291906125a3565b60405180910390fd5b60007f000000000000000000000000000000000000000000000000000000000000000073ffffffffffffffffffffffffffffffffffffffff166370a08231306040518263ffffffff1660e01b815260040161107f9190612463565b602060405180830381865afa15801561109c573d6000803e3d6000fd5b505050506040513d601f19601f820116820180604052508101906110c091906126a5565b9050808411156111095780846040517ff984d9140000000000000000000000000000000000000000000000000000000081526004016111009291906125a3565b60405180910390fd5b60007f00000000000000000000000000000000000000000000000000000000000000007f0000000000000000000000000000000000000000000000000000000000000000866111589190612732565b6111629190612701565b905060007f000000000000000000000000000000000000000000000000000000000000000073ffffffffffffffffffffffffffffffffffffffff166370a08231306040518263ffffffff1660e01b81526004016111bf9190612463565b602060405180830381865afa1580156111dc573d6000803e3d6000fd5b505050506040513d601f19601f8201168201806040525081019061120091906126a5565b9050808211156112495780826040517ff984d9140000000000000000000000000000000000000000000000000000000081526004016112409291906125a3565b60405180910390fd5b60007f000000000000000000000000000000000000000000000000000000000000000073ffffffffffffffffffffffffffffffffffffffff166323b872dd89600860009054906101000a900473ffffffffffffffffffffffffffffffffffffffff168a6040518463ffffffff1660e01b81526004016112ca939291906125cc565b6020604051808303816000875af11580156112e9573d6000803e3d6000fd5b505050506040513d601f19601f8201168201806040525081019061130d919061262f565b905080611346576040517f90b8ec1800000000000000000000000000000000000000000000000000000000815260040160405180910390fd5b7f000000000000000000000000000000000000000000000000000000000000000073ffffffffffffffffffffffffffffffffffffffff1663a9059cbb89856040518363ffffffff1660e01b81526004016113a192919061278c565b6020604051808303816000875af11580156113c0573d6000803e3d6000fd5b505050506040513d601f19601f820116820180604052508101906113e4919061262f565b90508061141d576040517f90b8ec1800000000000000000000000000000000000000000000000000000000815260040160405180910390fd5b5050505050505050565b60008060008373ffffffffffffffffffffffffffffffffffffffff1673ffffffffffffffffffffffffffffffffffffffff168152602001908152602001600020549050919050565b7f000000000000000000000000000000000000000000000000000000000000000081565b60066020528060005260406000206000915090505481565b600860009054906101000a900473ffffffffffffffffffffffffffffffffffffffff1681565b6060600480546114e0906124ed565b80601f016020809104026020016040519081016040528092919081815260200182805461150c906124ed565b80156115595780601f1061152e57610100808354040283529160200191611559565b820191906000526020600020905b81548152906001019060200180831161153c57829003601f168201915b5050505050905090565b7f000000000000000000000000000000000000000000000000000000000000000081565b60008062278d007f0000000000000000000000000000000000000000000000000000000000000000426115ba919061265c565b6115c49190612701565b9050600754816115d4919061254d565b90508091505090565b7f000000000000000000000000000000000000000000000000000000000000000081565b60075481565b600080611612611c16565b9050600061162082866116ef565b905083811015611665576040517f08c379a000000000000000000000000000000000000000000000000000000000815260040161165c90612827565b60405180910390fd5b6116728286868403611c1e565b60019250505092915050565b60055481565b60008061168f611c16565b905061169c818585611e73565b600191505092915050565b7f000000000000000000000000000000000000000000000000000000000000000081565b7f000000000000000000000000000000000000000000000000000000000000000081565b6000600160008473ffffffffffffffffffffffffffffffffffffffff1673ffffffffffffffffffffffffffffffffffffffff16815260200190815260200160002060008373ffffffffffffffffffffffffffffffffffffffff1673ffffffffffffffffffffffffffffffffffffffff16815260200190815260200160002054905092915050565b60007f000000000000000000000000000000000000000000000000000000000000000073ffffffffffffffffffffffffffffffffffffffff166370a08231306040518263ffffffff1660e01b81526004016117d19190612463565b602060405180830381865afa1580156117ee573d6000803e3d6000fd5b505050506040513d601f19601f8201168201806040525081019061181291906126a5565b905090565b81600860009054906101000a900473ffffffffffffffffffffffffffffffffffffffff1673ffffffffffffffffffffffffffffffffffffffff168173ffffffffffffffffffffffffffffffffffffffff16146118aa57806040517f245aecd30000000000000000000000000000000000000000000000000000000081526004016118a19190612463565b60405180910390fd5b7f0000000000000000000000000000000000000000000000000000000000000000821115611931577f0000000000000000000000000000000000000000000000000000000000000000826040517fe100b5e30000000000000000000000000000000000000000000000000000000081526004016119289291906125a3565b60405180910390fd5b81600781905550505050565b8060008103611978576040517f1f2a200500000000000000000000000000000000000000000000000000000000815260040160405180910390fd5b828260007f000000000000000000000000000000000000000000000000000000000000000073ffffffffffffffffffffffffffffffffffffffff166370a08231846040518263ffffffff1660e01b81526004016119d59190612463565b602060405180830381865afa1580156119f2573d6000803e3d6000fd5b505050506040513d601f19601f82011682018060405250810190611a1691906126a5565b905060003073ffffffffffffffffffffffffffffffffffffffff16635edf9e61856040518263ffffffff1660e01b8152600401611a539190612463565b602060405180830381865afa158015611a70573d6000803e3d6000fd5b505050506040513d601f19601f82011682018060405250810190611a9491906126a5565b905080831115611add5780836040517fd217735c000000000000000000000000000000000000000000000000000000008152600401611ad49291906125a3565b60405180910390fd5b85600660008973ffffffffffffffffffffffffffffffffffffffff1673ffffffffffffffffffffffffffffffffffffffff1681526020019081526020016000206000828254611b2c919061254d565b9250508190555060007f000000000000000000000000000000000000000000000000000000000000000073ffffffffffffffffffffffffffffffffffffffff1663a9059cbb89896040518363ffffffff1660e01b8152600401611b9092919061278c565b6020604051808303816000875af1158015611baf573d6000803e3d6000fd5b505050506040513d601f19601f82011682018060405250810190611bd3919061262f565b905080611c0c576040517f90b8ec1800000000000000000000000000000000000000000000000000000000815260040160405180910390fd5b5050505050505050565b600033905090565b600073ffffffffffffffffffffffffffffffffffffffff168373ffffffffffffffffffffffffffffffffffffffff1603611c8d576040517f08c379a0000000000000000000000000000000000000000000000000000000008152600401611c84906128b9565b60405180910390fd5b600073ffffffffffffffffffffffffffffffffffffffff168273ffffffffffffffffffffffffffffffffffffffff1603611cfc576040517f08c379a0000000000000000000000000000000000000000000000000000000008152600401611cf39061294b565b60405180910390fd5b80600160008573ffffffffffffffffffffffffffffffffffffffff1673ffffffffffffffffffffffffffffffffffffffff16815260200190815260200160002060008473ffffffffffffffffffffffffffffffffffffffff1673ffffffffffffffffffffffffffffffffffffffff168152602001908152602001600020819055508173ffffffffffffffffffffffffffffffffffffffff168373ffffffffffffffffffffffffffffffffffffffff167f8c5be1e5ebec7d5bd14f71427d1e84f3dd0314c0f7b2291e5b200ac8c7c3b92583604051611dda91906122cc565b60405180910390a3505050565b6000611df384846116ef565b90507fffffffffffffffffffffffffffffffffffffffffffffffffffffffffffffffff8114611e6d5781811015611e5f576040517f08c379a0000000000000000000000000000000000000000000000000000000008152600401611e56906129b7565b60405180910390fd5b611e6c8484848403611c1e565b5b50505050565b600073ffffffffffffffffffffffffffffffffffffffff168373ffffffffffffffffffffffffffffffffffffffff1603611ee2576040517f08c379a0000000000000000000000000000000000000000000000000000000008152600401611ed990612a49565b60405180910390fd5b600073ffffffffffffffffffffffffffffffffffffffff168273ffffffffffffffffffffffffffffffffffffffff1603611f51576040517f08c379a0000000000000000000000000000000000000000000000000000000008152600401611f4890612adb565b60405180910390fd5b611f5c8383836120e9565b60008060008573ffffffffffffffffffffffffffffffffffffffff1673ffffffffffffffffffffffffffffffffffffffff16815260200190815260200160002054905081811015611fe2576040517f08c379a0000000000000000000000000000000000000000000000000000000008152600401611fd990612b6d565b60405180910390fd5b8181036000808673ffffffffffffffffffffffffffffffffffffffff1673ffffffffffffffffffffffffffffffffffffffff16815260200190815260200160002081905550816000808573ffffffffffffffffffffffffffffffffffffffff1673ffffffffffffffffffffffffffffffffffffffff168152602001908152602001600020600082825401925050819055508273ffffffffffffffffffffffffffffffffffffffff168473ffffffffffffffffffffffffffffffffffffffff167fddf252ad1be2c89b69c2b068fc378daa952ba7f163c4a11628f55a4df523b3ef846040516120d091906122cc565b60405180910390a36120e38484846120ee565b50505050565b505050565b505050565b600081519050919050565b600082825260208201905092915050565b60005b8381101561212d578082015181840152602081019050612112565b8381111561213c576000848401525b50505050565b6000601f19601f8301169050919050565b600061215e826120f3565b61216881856120fe565b935061217881856020860161210f565b61218181612142565b840191505092915050565b600060208201905081810360008301526121a68184612153565b905092915050565b600080fd5b600073ffffffffffffffffffffffffffffffffffffffff82169050919050565b60006121de826121b3565b9050919050565b6121ee816121d3565b81146121f957600080fd5b50565b60008135905061220b816121e5565b92915050565b6000819050919050565b61222481612211565b811461222f57600080fd5b50565b6000813590506122418161221b565b92915050565b6000806040838503121561225e5761225d6121ae565b5b600061226c858286016121fc565b925050602061227d85828601612232565b9150509250929050565b60008115159050919050565b61229c81612287565b82525050565b60006020820190506122b76000830184612293565b92915050565b6122c681612211565b82525050565b60006020820190506122e160008301846122bd565b92915050565b6000819050919050565b600061230c612307612302846121b3565b6122e7565b6121b3565b9050919050565b600061231e826122f1565b9050919050565b600061233082612313565b9050919050565b61234081612325565b82525050565b600060208201905061235b6000830184612337565b92915050565b600061236c82612313565b9050919050565b61237c81612361565b82525050565b60006020820190506123976000830184612373565b92915050565b6000806000606084860312156123b6576123b56121ae565b5b60006123c4868287016121fc565b93505060206123d5868287016121fc565b92505060406123e686828701612232565b9150509250925092565b600060ff82169050919050565b612406816123f0565b82525050565b600060208201905061242160008301846123fd565b92915050565b60006020828403121561243d5761243c6121ae565b5b600061244b848285016121fc565b91505092915050565b61245d816121d3565b82525050565b60006020820190506124786000830184612454565b92915050565b60008060408385031215612495576124946121ae565b5b60006124a3858286016121fc565b92505060206124b4858286016121fc565b9150509250929050565b7f4e487b7100000000000000000000000000000000000000000000000000000000600052602260045260246000fd5b6000600282049050600182168061250557607f821691505b602082108103612518576125176124be565b5b50919050565b7f4e487b7100000000000000000000000000000000000000000000000000000000600052601160045260246000fd5b600061255882612211565b915061256383612211565b9250827fffffffffffffffffffffffffffffffffffffffffffffffffffffffffffffffff038211156125985761259761251e565b5b828201905092915050565b60006040820190506125b860008301856122bd565b6125c560208301846122bd565b9392505050565b60006060820190506125e16000830186612454565b6125ee6020830185612454565b6125fb60408301846122bd565b949350505050565b61260c81612287565b811461261757600080fd5b50565b60008151905061262981612603565b92915050565b600060208284031215612645576126446121ae565b5b60006126538482850161261a565b91505092915050565b600061266782612211565b915061267283612211565b9250828210156126855761268461251e565b5b828203905092915050565b60008151905061269f8161221b565b92915050565b6000602082840312156126bb576126ba6121ae565b5b60006126c984828501612690565b91505092915050565b7f4e487b7100000000000000000000000000000000000000000000000000000000600052601260045260246000fd5b600061270c82612211565b915061271783612211565b925082612727576127266126d2565b5b828204905092915050565b600061273d82612211565b915061274883612211565b9250817fffffffffffffffffffffffffffffffffffffffffffffffffffffffffffffffff04831182151516156127815761278061251e565b5b828202905092915050565b60006040820190506127a16000830185612454565b6127ae60208301846122bd565b9392505050565b7f45524332303a2064656372656173656420616c6c6f77616e63652062656c6f7760008201527f207a65726f000000000000000000000000000000000000000000000000000000602082015250565b60006128116025836120fe565b915061281c826127b5565b604082019050919050565b6000602082019050818103600083015261284081612804565b9050919050565b7f45524332303a20617070726f76652066726f6d20746865207a65726f2061646460008201527f7265737300000000000000000000000000000000000000000000000000000000602082015250565b60006128a36024836120fe565b91506128ae82612847565b604082019050919050565b600060208201905081810360008301526128d281612896565b9050919050565b7f45524332303a20617070726f766520746f20746865207a65726f20616464726560008201527f7373000000000000000000000000000000000000000000000000000000000000602082015250565b60006129356022836120fe565b9150612940826128d9565b604082019050919050565b6000602082019050818103600083015261296481612928565b9050919050565b7f45524332303a20696e73756666696369656e7420616c6c6f77616e6365000000600082015250565b60006129a1601d836120fe565b91506129ac8261296b565b602082019050919050565b600060208201905081810360008301526129d081612994565b9050919050565b7f45524332303a207472616e736665722066726f6d20746865207a65726f20616460008201527f6472657373000000000000000000000000000000000000000000000000000000602082015250565b6000612a336025836120fe565b9150612a3e826129d7565b604082019050919050565b60006020820190508181036000830152612a6281612a26565b9050919050565b7f45524332303a207472616e7366657220746f20746865207a65726f206164647260008201527f6573730000000000000000000000000000000000000000000000000000000000602082015250565b6000612ac56023836120fe565b9150612ad082612a69565b604082019050919050565b60006020820190508181036000830152612af481612ab8565b9050919050565b7f45524332303a207472616e7366657220616d6f756e742065786365656473206260008201527f616c616e63650000000000000000000000000000000000000000000000000000602082015250565b6000612b576026836120fe565b9150612b6282612afb565b604082019050919050565b60006020820190508181036000830152612b8681612b4a565b905091905056fea2646970667358221220d7db1d325d25592e9006664bbab43278d3514fdf26cf2ca46d37ce76f53a534b64736f6c634300080d0033a2646970667358221220e9bbb9b50ade78fa11684ca70bf791becaa1f7852690fb82a9b515f71d780d8464736f6c634300080d0033",
    "linkReferences": {}
  },
  "methodIdentifiers": {
    "getVaultAddress(uint256)": "e6bd26a2",
    "hotels(uint256)": "cd338265",
    "isHotelRegistered(uint256)": "8e9d3094",
    "isRegisteredHotel(uint256)": "ee5fd77d",
    "nextHotelId()": "8e4412bb",
    "registerHotel(string,uint256,uint256,uint256,uint256)": "4cf45762",
    "tokenFactory()": "e77772fe",
    "usdcToken()": "11eac855"
  },
  "id": 24
}