{
  "abi": [
    {
      "type": "constructor",
      "inputs": [
        {
          "name": "_usdcToken",
          "type": "address",
          "internalType": "address"
        },
        {
          "name": "_tokenFactory",
          "type": "address",
          "internalType": "address"
        }
      ],
      "stateMutability": "nonpayable"
    },
    {
      "type": "function",
      "name": "getVaultAddress",
      "inputs": [
        {
          "name": "_hotelId",
          "type": "uint256",
          "internalType": "uint256"
        }
      ],
      "outputs": [
        {
          "name": "",
          "type": "address",
          "internalType": "address"
        }
      ],
      "stateMutability": "view"
    },
    {
      "type": "function",
      "name": "hotels",
      "inputs": [
        {
          "name": "",
          "type": "uint256",
          "internalType": "uint256"
        }
      ],
      "outputs": [
        {
          "name": "owner",
          "type": "address",
          "internalType": "address"
        },
        {
          "name": "name",
          "type": "string",
          "internalType": "string"
        },
        {
          "name": "vaultAddress",
          "type": "address",
          "internalType": "address"
        }
      ],
      "stateMutability": "view"
    },
    {
      "type": "function",
      "name": "isHotelRegistered",
      "inputs": [
        {
          "name": "_hotelId",
          "type": "uint256",
          "internalType": "uint256"
        }
      ],
      "outputs": [
        {
          "name": "",
          "type": "bool",
          "internalType": "bool"
        }
      ],
      "stateMutability": "view"
    },
    {
      "type": "function",
      "name": "isRegisteredHotel",
      "inputs": [
        {
          "name": "",
          "type": "uint256",
          "internalType": "uint256"
        }
      ],
      "outputs": [
        {
          "name": "",
          "type": "bool",
          "internalType": "bool"
        }
      ],
      "stateMutability": "view"
    },
    {
      "type": "function",
      "name": "nextHotelId",
      "inputs": [],
      "outputs": [
        {
          "name": "",
          "type": "uint256",
          "internalType": "uint256"
        }
      ],
      "stateMutability": "view"
    },
    {
      "type": "function",
      "name": "registerHotel",
      "inputs": [
        {
          "name": "_name",
          "type": "string",
          "internalType": "string"
        },
        {
          "name": "_tokenAmount",
          "type": "uint256",
          "internalType": "uint256"
        },
        {
          "name": "_usdcPrice",
          "type": "uint256",
          "internalType": "uint256"
        },
        {
          "name": "_totalMonth",
          "type": "uint256",
          "internalType": "uint256"
        },
        {
          "name": "_auctionDuration",
          "type": "uint256",
          "internalType": "uint256"
        }
      ],
      "outputs": [],
      "stateMutability": "nonpayable"
    },
    {
      "type": "function",
      "name": "tokenFactory",
      "inputs": [],
      "outputs": [
        {
          "name": "",
          "type": "address",
          "internalType": "contract LaLoTokenFactory"
        }
      ],
      "stateMutability": "view"
    },
    {
      "type": "function",
      "name": "usdcToken",
      "inputs": [],
      "outputs": [
        {
          "name": "",
          "type": "address",
          "internalType": "contract IERC20"
        }
      ],
      "stateMutability": "view"
    },
    {
      "type": "event",
      "name": "HotelRegistered",
      "inputs": [
        {
          "name": "hotelId",
          "type": "uint256",
          "indexed": false,
          "internalType": "uint256"
        },
        {
          "name": "name",
          "type": "string",
          "indexed": false,
          "internalType": "string"
        },
        {
          "name": "vaultAddress",
          "type": "address",
          "indexed": false,
          "internalType": "address"
        }
      ],
      "anonymous": false
    },
    {
      "type": "error",
      "name": "HotelNotRegistered",
      "inputs": []
    },
    {
      "type": "error",
      "name": "InvalidSellingRate",
      "inputs": [
        {
          "name": "tokenAmount",
          "type": "uint256",
          "internalType": "uint256"
        },
        {
          "name": "usdcPrice",
          "type": "uint256",
          "internalType": "uint256"
        }
      ]
    },
    {
      "type": "error",
      "name": "UnauthorizedHotelOwner",
      "inputs": []
    },
    {
      "type": "error",
      "name": "ZeroAmount",
      "inputs": []
    }
  ],
  "bytecode": {
    "object": "0x608060405234801562000010575f80fd5b50604051620041a1380380620041a1833981810160405281019062000036919062000122565b815f806101000a81548173ffffffffffffffffffffffffffffffffffffffff021916908373ffffffffffffffffffffffffffffffffffffffff1602179055508060015f6101000a81548173ffffffffffffffffffffffffffffffffffffffff021916908373ffffffffffffffffffffffffffffffffffffffff160217905550505062000167565b5f80fd5b5f73ffffffffffffffffffffffffffffffffffffffff82169050919050565b5f620000ec82620000c1565b9050919050565b620000fe81620000e0565b811462000109575f80fd5b50565b5f815190506200011c81620000f3565b92915050565b5f80604083850312156200013b576200013a620000bd565b5b5f6200014a858286016200010c565b92505060206200015d858286016200010c565b9150509250929050565b61402c80620001755f395ff3fe608060405234801562000010575f80fd5b506004361062000092575f3560e01c8063cd3382651162000061578063cd3382651462000130578063e6bd26a21462000168578063e77772fe146200019e578063ee5fd77d14620001c05762000092565b806311eac85514620000965780634cf4576214620000b85780638e4412bb14620000d85780638e9d309414620000fa575b5f80fd5b620000a0620001f6565b604051620000af919062000719565b60405180910390f35b620000d66004803603810190620000d09190620008d5565b62000219565b005b620000e2620004e9565b604051620000f1919062000989565b60405180910390f35b620001186004803603810190620001129190620009a4565b620004ef565b604051620001279190620009f0565b60405180910390f35b6200014e6004803603810190620001489190620009a4565b62000515565b6040516200015f9392919062000ab3565b60405180910390f35b620001866004803603810190620001809190620009a4565b62000607565b60405162000195919062000af5565b60405180910390f35b620001a862000643565b604051620001b7919062000b34565b60405180910390f35b620001de6004803603810190620001d89190620009a4565b62000668565b604051620001ed9190620009f0565b60405180910390f35b5f8054906101000a900473ffffffffffffffffffffffffffffffffffffffff1681565b5f8414806200022757505f83145b156200025f576040517f1f2a200500000000000000000000000000000000000000000000000000000000815260040160405180910390fd5b5f670de0b6b3a764000090505f8482876200027b919062000b7c565b62000287919062000bf3565b905085851115620002d35785856040517fdb6560fa000000000000000000000000000000000000000000000000000000008152600401620002ca92919062000c2a565b60405180910390fd5b5f805f9054906101000a900473ffffffffffffffffffffffffffffffffffffffff1660015f9054906101000a900473ffffffffffffffffffffffffffffffffffffffff16883385878a8d8b6040516200032c9062000685565b620003409998979695949392919062000c55565b604051809103905ff0801580156200035a573d5f803e3d5ffd5b50905060405180606001604052803373ffffffffffffffffffffffffffffffffffffffff1681526020018981526020018273ffffffffffffffffffffffffffffffffffffffff1681525060025f60045481526020019081526020015f205f820151815f015f6101000a81548173ffffffffffffffffffffffffffffffffffffffff021916908373ffffffffffffffffffffffffffffffffffffffff160217905550602082015181600101908162000412919062000f0d565b506040820151816002015f6101000a81548173ffffffffffffffffffffffffffffffffffffffff021916908373ffffffffffffffffffffffffffffffffffffffff160217905550905050600160035f60045481526020019081526020015f205f6101000a81548160ff0219169083151502179055507f7e274df05619782a1a47dddfc2b9e1356c1eb97019c8d64c229da23cdbe4ec7b6004548983604051620004be9392919062000ff1565b60405180910390a160045f815480929190620004da9062001033565b91905055505050505050505050565b60045481565b5f60035f8381526020019081526020015f205f9054906101000a900460ff169050919050565b6002602052805f5260405f205f91509050805f015f9054906101000a900473ffffffffffffffffffffffffffffffffffffffff16908060010180546200055b9062000d1f565b80601f0160208091040260200160405190810160405280929190818152602001828054620005899062000d1f565b8015620005d85780601f10620005ae57610100808354040283529160200191620005d8565b820191905f5260205f20905b815481529060010190602001808311620005ba57829003601f168201915b505050505090806002015f9054906101000a900473ffffffffffffffffffffffffffffffffffffffff16905083565b5f60025f8381526020019081526020015f206002015f9054906101000a900473ffffffffffffffffffffffffffffffffffffffff169050919050565b60015f9054906101000a900473ffffffffffffffffffffffffffffffffffffffff1681565b6003602052805f5260405f205f915054906101000a900460ff1681565b612f77806200108083390190565b5f73ffffffffffffffffffffffffffffffffffffffff82169050919050565b5f819050919050565b5f620006db620006d5620006cf8462000693565b620006b2565b62000693565b9050919050565b5f620006ee82620006bb565b9050919050565b5f6200070182620006e2565b9050919050565b6200071381620006f5565b82525050565b5f6020820190506200072e5f83018462000708565b92915050565b5f604051905090565b5f80fd5b5f80fd5b5f80fd5b5f80fd5b5f601f19601f8301169050919050565b7f4e487b71000000000000000000000000000000000000000000000000000000005f52604160045260245ffd5b62000795826200074d565b810181811067ffffffffffffffff82111715620007b757620007b66200075d565b5b80604052505050565b5f620007cb62000734565b9050620007d982826200078a565b919050565b5f67ffffffffffffffff821115620007fb57620007fa6200075d565b5b62000806826200074d565b9050602081019050919050565b828183375f83830152505050565b5f620008376200083184620007de565b620007c0565b90508281526020810184848401111562000856576200085562000749565b5b6200086384828562000813565b509392505050565b5f82601f83011262000882576200088162000745565b5b81356200089484826020860162000821565b91505092915050565b5f819050919050565b620008b1816200089d565b8114620008bc575f80fd5b50565b5f81359050620008cf81620008a6565b92915050565b5f805f805f60a08688031215620008f157620008f06200073d565b5b5f86013567ffffffffffffffff81111562000911576200091062000741565b5b6200091f888289016200086b565b95505060206200093288828901620008bf565b94505060406200094588828901620008bf565b93505060606200095888828901620008bf565b92505060806200096b88828901620008bf565b9150509295509295909350565b62000983816200089d565b82525050565b5f6020820190506200099e5f83018462000978565b92915050565b5f60208284031215620009bc57620009bb6200073d565b5b5f620009cb84828501620008bf565b91505092915050565b5f8115159050919050565b620009ea81620009d4565b82525050565b5f60208201905062000a055f830184620009df565b92915050565b5f62000a178262000693565b9050919050565b62000a298162000a0b565b82525050565b5f81519050919050565b5f82825260208201905092915050565b5f5b8381101562000a6857808201518184015260208101905062000a4b565b5f8484015250505050565b5f62000a7f8262000a2f565b62000a8b818562000a39565b935062000a9d81856020860162000a49565b62000aa8816200074d565b840191505092915050565b5f60608201905062000ac85f83018662000a1e565b818103602083015262000adc818562000a73565b905062000aed604083018462000a1e565b949350505050565b5f60208201905062000b0a5f83018462000a1e565b92915050565b5f62000b1c82620006e2565b9050919050565b62000b2e8162000b10565b82525050565b5f60208201905062000b495f83018462000b23565b92915050565b7f4e487b71000000000000000000000000000000000000000000000000000000005f52601160045260245ffd5b5f62000b88826200089d565b915062000b95836200089d565b925082820262000ba5816200089d565b9150828204841483151762000bbf5762000bbe62000b4f565b5b5092915050565b7f4e487b71000000000000000000000000000000000000000000000000000000005f52601260045260245ffd5b5f62000bff826200089d565b915062000c0c836200089d565b92508262000c1f5762000c1e62000bc6565b5b828204905092915050565b5f60408201905062000c3f5f83018562000978565b62000c4e602083018462000978565b9392505050565b5f6101208201905062000c6b5f83018c62000a1e565b62000c7a602083018b62000b23565b62000c89604083018a62000978565b62000c98606083018962000a1e565b62000ca7608083018862000978565b62000cb660a083018762000978565b62000cc560c083018662000978565b62000cd460e083018562000978565b62000ce461010083018462000978565b9a9950505050505050505050565b7f4e487b71000000000000000000000000000000000000000000000000000000005f52602260045260245ffd5b5f600282049050600182168062000d3757607f821691505b60208210810362000d4d5762000d4c62000cf2565b5b50919050565b5f819050815f5260205f209050919050565b5f6020601f8301049050919050565b5f82821b905092915050565b5f6008830262000db17fffffffffffffffffffffffffffffffffffffffffffffffffffffffffffffffff8262000d74565b62000dbd868362000d74565b95508019841693508086168417925050509392505050565b5f62000df562000def62000de9846200089d565b620006b2565b6200089d565b9050919050565b5f819050919050565b62000e108362000dd5565b62000e2862000e1f8262000dfc565b84845462000d80565b825550505050565b5f90565b62000e3e62000e30565b62000e4b81848462000e05565b505050565b5b8181101562000e725762000e665f8262000e34565b60018101905062000e51565b5050565b601f82111562000ec15762000e8b8162000d53565b62000e968462000d65565b8101602085101562000ea6578190505b62000ebe62000eb58562000d65565b83018262000e50565b50505b505050565b5f82821c905092915050565b5f62000ee35f198460080262000ec6565b1980831691505092915050565b5f62000efd838362000ed2565b9150826002028217905092915050565b62000f188262000a2f565b67ffffffffffffffff81111562000f345762000f336200075d565b5b62000f40825462000d1f565b62000f4d82828562000e76565b5f60209050601f83116001811462000f83575f841562000f6e578287015190505b62000f7a858262000ef0565b86555062000fe9565b601f19841662000f938662000d53565b5f5b8281101562000fbc5784890151825560018201915060208501945060208101905062000f95565b8683101562000fdc578489015162000fd8601f89168262000ed2565b8355505b6001600288020188555050505b505050505050565b5f606082019050620010065f83018662000978565b81810360208301526200101a818562000a73565b90506200102b604083018462000a1e565b949350505050565b5f6200103f826200089d565b91507fffffffffffffffffffffffffffffffffffffffffffffffffffffffffffffffff820362001074576200107362000b4f565b5b60018201905091905056fe6101a060405234801562000011575f80fd5b5060405162002f7738038062002f7783398181016040528101906200003791906200032c565b6040518060400160405280600981526020017f4c614c6f5661756c7400000000000000000000000000000000000000000000008152506040518060400160405280600481526020017f4c4c4f56000000000000000000000000000000000000000000000000000000008152508160039081620000b4919062000660565b508060049081620000c6919062000660565b5050505f8873ffffffffffffffffffffffffffffffffffffffff16637e3b6d68896040518263ffffffff1660e01b815260040162000105919062000755565b6020604051808303815f875af115801562000122573d5f803e3d5ffd5b505050506040513d601f19601f8201168201806040525081019062000148919062000770565b90508973ffffffffffffffffffffffffffffffffffffffff1660808173ffffffffffffffffffffffffffffffffffffffff16815250508073ffffffffffffffffffffffffffffffffffffffff1660a08173ffffffffffffffffffffffffffffffffffffffff16815250508660085f6101000a81548173ffffffffffffffffffffffffffffffffffffffff021916908373ffffffffffffffffffffffffffffffffffffffff1602179055508560c081815250508460e08181525050836101808181525050826101608181525050426101208181525050876101008181525050876005819055508161014081815250505f60078190555050505050505050505050620007a0565b5f80fd5b5f73ffffffffffffffffffffffffffffffffffffffff82169050919050565b5f6200027c8262000251565b9050919050565b6200028e8162000270565b811462000299575f80fd5b50565b5f81519050620002ac8162000283565b92915050565b5f620002be8262000270565b9050919050565b620002d081620002b2565b8114620002db575f80fd5b50565b5f81519050620002ee81620002c5565b92915050565b5f819050919050565b6200030881620002f4565b811462000313575f80fd5b50565b5f815190506200032681620002fd565b92915050565b5f805f805f805f805f6101208a8c0312156200034d576200034c6200024d565b5b5f6200035c8c828d016200029c565b99505060206200036f8c828d01620002de565b9850506040620003828c828d0162000316565b9750506060620003958c828d016200029c565b9650506080620003a88c828d0162000316565b95505060a0620003bb8c828d0162000316565b94505060c0620003ce8c828d0162000316565b93505060e0620003e18c828d0162000316565b925050610100620003f58c828d0162000316565b9150509295985092959850929598565b5f81519050919050565b7f4e487b71000000000000000000000000000000000000000000000000000000005f52604160045260245ffd5b7f4e487b71000000000000000000000000000000000000000000000000000000005f52602260045260245ffd5b5f60028204905060018216806200048157607f821691505b6020821081036200049757620004966200043c565b5b50919050565b5f819050815f5260205f209050919050565b5f6020601f8301049050919050565b5f82821b905092915050565b5f60088302620004fb7fffffffffffffffffffffffffffffffffffffffffffffffffffffffffffffffff82620004be565b620005078683620004be565b95508019841693508086168417925050509392505050565b5f819050919050565b5f62000548620005426200053c84620002f4565b6200051f565b620002f4565b9050919050565b5f819050919050565b620005638362000528565b6200057b62000572826200054f565b848454620004ca565b825550505050565b5f90565b6200059162000583565b6200059e81848462000558565b505050565b5b81811015620005c557620005b95f8262000587565b600181019050620005a4565b5050565b601f8211156200061457620005de816200049d565b620005e984620004af565b81016020851015620005f9578190505b620006116200060885620004af565b830182620005a3565b50505b505050565b5f82821c905092915050565b5f620006365f198460080262000619565b1980831691505092915050565b5f62000650838362000625565b9150826002028217905092915050565b6200066b8262000405565b67ffffffffffffffff8111156200068757620006866200040f565b5b62000693825462000469565b620006a0828285620005c9565b5f60209050601f831160018114620006d6575f8415620006c1578287015190505b620006cd858262000643565b8655506200073c565b601f198416620006e6866200049d565b5f5b828110156200070f57848901518255600182019150602085019450602081019050620006e8565b868310156200072f57848901516200072b601f89168262000625565b8355505b6001600288020188555050505b505050505050565b6200074f81620002f4565b82525050565b5f6020820190506200076a5f83018462000744565b92915050565b5f602082840312156200078857620007876200024d565b5b5f62000797848285016200029c565b91505092915050565b60805160a05160c05160e05161010051610120516101405161016051610180516126c2620008b55f395f8181610c3a01528181610c6201528181610ca6015281816114f00152818161173c015261176401525f8181610d88015261156601525f81816107290152610ebb01525f8181610bf201528181610edc015281816114a1015261154201525f61147701525f8181611033015261138901525f81816107cf015261105401525f818161077b015281816107fb01528181610b1201528181610ce001528181610de101528181610f510152818161108d015281816112660152818161160d015261180c01525f818161074d0152818161097d01528181610a730152818161116f01526119bc01526126c25ff3fe608060405234801561000f575f80fd5b50600436106101f9575f3560e01c806370a0823111610118578063a00e66d7116100ab578063bf2d9e0b1161007a578063bf2d9e0b146105d1578063dd62ed3e146105ef578063e35568cb1461061f578063e6c6f12c1461063d578063f3fef3a314610659576101f9565b8063a00e66d714610547578063a79a7f6d14610565578063a9059cbb14610583578063b30930cc146105b3576101f9565b806395d89b41116100e757806395d89b41146104cf578063963f7cb5146104ed5780639b4f19c61461050b5780639f06590614610529576101f9565b806370a082311461043357806371ca337d1461046357806384fb20a0146104815780638da5cb5b146104b1576101f9565b8063313ce56711610190578063578dae4f1161015f578063578dae4f146103995780635edf9e61146103b75780635f515226146103e75780636945b12314610417576101f9565b8063313ce567146103115780633cf7dcba1461032f5780633f795cc01461034d57806347e7ef241461037d576101f9565b806318160ddd116101cc57806318160ddd1461028757806321df0da7146102a557806323b872dd146102c35780632c4e722e146102f3576101f9565b806306fdde03146101fd578063095ea7b31461021b5780630cbf54c81461024b57806311eac85514610269575b5f80fd5b610205610675565b60405161021291906120a6565b60405180910390f35b61023560048036038101906102309190612157565b610705565b60405161024291906121af565b60405180910390f35b610253610727565b60405161026091906121d7565b60405180910390f35b61027161074b565b60405161027e919061224b565b60405180910390f35b61028f61076f565b60405161029c91906121d7565b60405180910390f35b6102ad610778565b6040516102ba9190612284565b60405180910390f35b6102dd60048036038101906102d8919061229d565b61079f565b6040516102ea91906121af565b60405180910390f35b6102fb6107cd565b60405161030891906121d7565b60405180910390f35b6103196107f1565b6040516103269190612308565b60405180910390f35b6103376107f9565b6040516103449190612284565b60405180910390f35b61036760048036038101906103629190612321565b61081d565b60405161037491906121d7565b60405180910390f35b61039760048036038101906103929190612157565b610863565b005b6103a1610a70565b6040516103ae91906121d7565b60405180910390f35b6103d160048036038101906103cc9190612321565b610b0e565b6040516103de91906121d7565b60405180910390f35b61040160048036038101906103fc9190612321565b610dde565b60405161040e91906121d7565b60405180910390f35b610431600480360381019061042c9190612157565b610e7e565b005b61044d60048036038101906104489190612321565b611342565b60405161045a91906121d7565b60405180910390f35b61046b611387565b60405161047891906121d7565b60405180910390f35b61049b60048036038101906104969190612321565b6113ab565b6040516104a891906121d7565b60405180910390f35b6104b96113c0565b6040516104c6919061235b565b60405180910390f35b6104d76113e5565b6040516104e491906120a6565b60405180910390f35b6104f5611475565b60405161050291906121d7565b60405180910390f35b610513611499565b60405161052091906121d7565b60405180910390f35b6105316114ee565b60405161053e91906121d7565b60405180910390f35b61054f611512565b60405161055c91906121d7565b60405180910390f35b61056d611518565b60405161057a91906121d7565b60405180910390f35b61059d60048036038101906105989190612157565b61151e565b6040516105aa91906121af565b60405180910390f35b6105bb611540565b6040516105c891906121d7565b60405180910390f35b6105d9611564565b6040516105e691906121d7565b60405180910390f35b61060960048036038101906106049190612374565b611588565b60405161061691906121d7565b60405180910390f35b61062761160a565b60405161063491906121d7565b60405180910390f35b61065760048036038101906106529190612157565b6116a8565b005b610673600480360381019061066e9190612157565b6117cd565b005b606060038054610684906123df565b80601f01602080910402602001604051908101604052809291908181526020018280546106b0906123df565b80156106fb5780601f106106d2576101008083540402835291602001916106fb565b820191905f5260205f20905b8154815290600101906020018083116106de57829003601f168201915b5050505050905090565b5f8061070f611a98565b905061071c818585611a9f565b600191505092915050565b7f000000000000000000000000000000000000000000000000000000000000000081565b7f000000000000000000000000000000000000000000000000000000000000000081565b5f600254905090565b5f7f0000000000000000000000000000000000000000000000000000000000000000905090565b5f806107a9611a98565b90506107b6858285611ab1565b6107c1858585611b44565b60019150509392505050565b7f000000000000000000000000000000000000000000000000000000000000000081565b5f6012905090565b7f000000000000000000000000000000000000000000000000000000000000000081565b5f60065f8373ffffffffffffffffffffffffffffffffffffffff1673ffffffffffffffffffffffffffffffffffffffff1681526020019081526020015f20549050919050565b8160085f9054906101000a900473ffffffffffffffffffffffffffffffffffffffff1673ffffffffffffffffffffffffffffffffffffffff168173ffffffffffffffffffffffffffffffffffffffff16146108f557806040517f245aecd30000000000000000000000000000000000000000000000000000000081526004016108ec919061235b565b60405180910390fd5b815f810361092f576040517f1f2a200500000000000000000000000000000000000000000000000000000000815260040160405180910390fd5b60055483111561097a57600554836040517fdf6079b700000000000000000000000000000000000000000000000000000000815260040161097192919061240f565b60405180910390fd5b5f7f000000000000000000000000000000000000000000000000000000000000000073ffffffffffffffffffffffffffffffffffffffff166323b872dd8630876040518463ffffffff1660e01b81526004016109d893929190612436565b6020604051808303815f875af11580156109f4573d5f803e3d5ffd5b505050506040513d601f19601f82011682018060405250810190610a189190612495565b905080610a51576040517f90b8ec1800000000000000000000000000000000000000000000000000000000815260040160405180910390fd5b8360055f828254610a6291906124ed565b925050819055505050505050565b5f7f000000000000000000000000000000000000000000000000000000000000000073ffffffffffffffffffffffffffffffffffffffff166370a08231306040518263ffffffff1660e01b8152600401610aca919061235b565b602060405180830381865afa158015610ae5573d5f803e3d5ffd5b505050506040513d601f19601f82011682018060405250810190610b099190612534565b905090565b5f807f000000000000000000000000000000000000000000000000000000000000000073ffffffffffffffffffffffffffffffffffffffff166370a08231846040518263ffffffff1660e01b8152600401610b69919061235b565b602060405180830381865afa158015610b84573d5f803e3d5ffd5b505050506040513d601f19601f82011682018060405250810190610ba89190612534565b90505f60065f8573ffffffffffffffffffffffffffffffffffffffff1673ffffffffffffffffffffffffffffffffffffffff1681526020019081526020015f205490505f62278d007f000000000000000000000000000000000000000000000000000000000000000042610c1c91906124ed565b610c26919061258c565b905060075481610c3691906125bc565b90507f0000000000000000000000000000000000000000000000000000000000000000811115610c84577f000000000000000000000000000000000000000000000000000000000000000090505b5f670de0b6b3a764000090505f6ec097ce7bc90715b34b9f100000000090505f7f00000000000000000000000000000000000000000000000000000000000000008385610cd191906125ef565b610cdb919061258c565b90505f7f000000000000000000000000000000000000000000000000000000000000000073ffffffffffffffffffffffffffffffffffffffff166318160ddd6040518163ffffffff1660e01b8152600401602060405180830381865afa158015610d47573d5f803e3d5ffd5b505050506040513d601f19601f82011682018060405250810190610d6b9190612534565b8488610d7791906125ef565b610d81919061258c565b90508583827f000000000000000000000000000000000000000000000000000000000000000085610db291906125ef565b610dbc91906125ef565b610dc6919061258c565b610dd091906124ed565b975050505050505050919050565b5f7f000000000000000000000000000000000000000000000000000000000000000073ffffffffffffffffffffffffffffffffffffffff166370a08231836040518263ffffffff1660e01b8152600401610e38919061235b565b602060405180830381865afa158015610e53573d5f803e3d5ffd5b505050506040513d601f19601f82011682018060405250810190610e779190612534565b9050919050565b805f8103610eb8576040517f1f2a200500000000000000000000000000000000000000000000000000000000815260040160405180910390fd5b5f7f00000000000000000000000000000000000000000000000000000000000000007f0000000000000000000000000000000000000000000000000000000000000000610f0591906125bc565b905042811015610f4e5780426040517f6e285ad8000000000000000000000000000000000000000000000000000000008152600401610f4592919061240f565b60405180910390fd5b5f7f000000000000000000000000000000000000000000000000000000000000000073ffffffffffffffffffffffffffffffffffffffff166370a08231306040518263ffffffff1660e01b8152600401610fa8919061235b565b602060405180830381865afa158015610fc3573d5f803e3d5ffd5b505050506040513d601f19601f82011682018060405250810190610fe79190612534565b9050808411156110305780846040517ff984d91400000000000000000000000000000000000000000000000000000000815260040161102792919061240f565b60405180910390fd5b5f7f00000000000000000000000000000000000000000000000000000000000000007f00000000000000000000000000000000000000000000000000000000000000008661107e91906125ef565b611088919061258c565b90505f7f000000000000000000000000000000000000000000000000000000000000000073ffffffffffffffffffffffffffffffffffffffff166370a08231306040518263ffffffff1660e01b81526004016110e4919061235b565b602060405180830381865afa1580156110ff573d5f803e3d5ffd5b505050506040513d601f19601f820116820180604052508101906111239190612534565b90508082111561116c5780826040517ff984d91400000000000000000000000000000000000000000000000000000000815260040161116392919061240f565b60405180910390fd5b5f7f000000000000000000000000000000000000000000000000000000000000000073ffffffffffffffffffffffffffffffffffffffff166323b872dd8960085f9054906101000a900473ffffffffffffffffffffffffffffffffffffffff168a6040518463ffffffff1660e01b81526004016111eb93929190612436565b6020604051808303815f875af1158015611207573d5f803e3d5ffd5b505050506040513d601f19601f8201168201806040525081019061122b9190612495565b905080611264576040517f90b8ec1800000000000000000000000000000000000000000000000000000000815260040160405180910390fd5b7f000000000000000000000000000000000000000000000000000000000000000073ffffffffffffffffffffffffffffffffffffffff1663a9059cbb89856040518363ffffffff1660e01b81526004016112bf929190612630565b6020604051808303815f875af11580156112db573d5f803e3d5ffd5b505050506040513d601f19601f820116820180604052508101906112ff9190612495565b905080611338576040517f90b8ec1800000000000000000000000000000000000000000000000000000000815260040160405180910390fd5b5050505050505050565b5f805f8373ffffffffffffffffffffffffffffffffffffffff1673ffffffffffffffffffffffffffffffffffffffff1681526020019081526020015f20549050919050565b7f000000000000000000000000000000000000000000000000000000000000000081565b6006602052805f5260405f205f915090505481565b60085f9054906101000a900473ffffffffffffffffffffffffffffffffffffffff1681565b6060600480546113f4906123df565b80601f0160208091040260200160405190810160405280929190818152602001828054611420906123df565b801561146b5780601f106114425761010080835404028352916020019161146b565b820191905f5260205f20905b81548152906001019060200180831161144e57829003601f168201915b5050505050905090565b7f000000000000000000000000000000000000000000000000000000000000000081565b5f8062278d007f0000000000000000000000000000000000000000000000000000000000000000426114cb91906124ed565b6114d5919061258c565b9050600754816114e591906125bc565b90508091505090565b7f000000000000000000000000000000000000000000000000000000000000000081565b60075481565b60055481565b5f80611528611a98565b9050611535818585611b44565b600191505092915050565b7f000000000000000000000000000000000000000000000000000000000000000081565b7f000000000000000000000000000000000000000000000000000000000000000081565b5f60015f8473ffffffffffffffffffffffffffffffffffffffff1673ffffffffffffffffffffffffffffffffffffffff1681526020019081526020015f205f8373ffffffffffffffffffffffffffffffffffffffff1673ffffffffffffffffffffffffffffffffffffffff1681526020019081526020015f2054905092915050565b5f7f000000000000000000000000000000000000000000000000000000000000000073ffffffffffffffffffffffffffffffffffffffff166370a08231306040518263ffffffff1660e01b8152600401611664919061235b565b602060405180830381865afa15801561167f573d5f803e3d5ffd5b505050506040513d601f19601f820116820180604052508101906116a39190612534565b905090565b8160085f9054906101000a900473ffffffffffffffffffffffffffffffffffffffff1673ffffffffffffffffffffffffffffffffffffffff168173ffffffffffffffffffffffffffffffffffffffff161461173a57806040517f245aecd3000000000000000000000000000000000000000000000000000000008152600401611731919061235b565b60405180910390fd5b7f00000000000000000000000000000000000000000000000000000000000000008211156117c1577f0000000000000000000000000000000000000000000000000000000000000000826040517fe100b5e30000000000000000000000000000000000000000000000000000000081526004016117b892919061240f565b60405180910390fd5b81600781905550505050565b805f8103611807576040517f1f2a200500000000000000000000000000000000000000000000000000000000815260040160405180910390fd5b82825f7f000000000000000000000000000000000000000000000000000000000000000073ffffffffffffffffffffffffffffffffffffffff166370a08231846040518263ffffffff1660e01b8152600401611863919061235b565b602060405180830381865afa15801561187e573d5f803e3d5ffd5b505050506040513d601f19601f820116820180604052508101906118a29190612534565b90505f3073ffffffffffffffffffffffffffffffffffffffff16635edf9e61856040518263ffffffff1660e01b81526004016118de919061235b565b602060405180830381865afa1580156118f9573d5f803e3d5ffd5b505050506040513d601f19601f8201168201806040525081019061191d9190612534565b9050808311156119665780836040517fd217735c00000000000000000000000000000000000000000000000000000000815260040161195d92919061240f565b60405180910390fd5b8560065f8973ffffffffffffffffffffffffffffffffffffffff1673ffffffffffffffffffffffffffffffffffffffff1681526020019081526020015f205f8282546119b291906125bc565b925050819055505f7f000000000000000000000000000000000000000000000000000000000000000073ffffffffffffffffffffffffffffffffffffffff1663a9059cbb89896040518363ffffffff1660e01b8152600401611a15929190612630565b6020604051808303815f875af1158015611a31573d5f803e3d5ffd5b505050506040513d601f19601f82011682018060405250810190611a559190612495565b905080611a8e576040517f90b8ec1800000000000000000000000000000000000000000000000000000000815260040160405180910390fd5b5050505050505050565b5f33905090565b611aac8383836001611c34565b505050565b5f611abc8484611588565b90507fffffffffffffffffffffffffffffffffffffffffffffffffffffffffffffffff811015611b3e5781811015611b2f578281836040517ffb8f41b2000000000000000000000000000000000000000000000000000000008152600401611b2693929190612657565b60405180910390fd5b611b3d84848484035f611c34565b5b50505050565b5f73ffffffffffffffffffffffffffffffffffffffff168373ffffffffffffffffffffffffffffffffffffffff1603611bb4575f6040517f96c6fd1e000000000000000000000000000000000000000000000000000000008152600401611bab919061235b565b60405180910390fd5b5f73ffffffffffffffffffffffffffffffffffffffff168273ffffffffffffffffffffffffffffffffffffffff1603611c24575f6040517fec442f05000000000000000000000000000000000000000000000000000000008152600401611c1b919061235b565b60405180910390fd5b611c2f838383611e03565b505050565b5f73ffffffffffffffffffffffffffffffffffffffff168473ffffffffffffffffffffffffffffffffffffffff1603611ca4575f6040517fe602df05000000000000000000000000000000000000000000000000000000008152600401611c9b919061235b565b60405180910390fd5b5f73ffffffffffffffffffffffffffffffffffffffff168373ffffffffffffffffffffffffffffffffffffffff1603611d14575f6040517f94280d62000000000000000000000000000000000000000000000000000000008152600401611d0b919061235b565b60405180910390fd5b8160015f8673ffffffffffffffffffffffffffffffffffffffff1673ffffffffffffffffffffffffffffffffffffffff1681526020019081526020015f205f8573ffffffffffffffffffffffffffffffffffffffff1673ffffffffffffffffffffffffffffffffffffffff1681526020019081526020015f20819055508015611dfd578273ffffffffffffffffffffffffffffffffffffffff168473ffffffffffffffffffffffffffffffffffffffff167f8c5be1e5ebec7d5bd14f71427d1e84f3dd0314c0f7b2291e5b200ac8c7c3b92584604051611df491906121d7565b60405180910390a35b50505050565b5f73ffffffffffffffffffffffffffffffffffffffff168373ffffffffffffffffffffffffffffffffffffffff1603611e53578060025f828254611e4791906125bc565b92505081905550611f21565b5f805f8573ffffffffffffffffffffffffffffffffffffffff1673ffffffffffffffffffffffffffffffffffffffff1681526020019081526020015f2054905081811015611edc578381836040517fe450d38c000000000000000000000000000000000000000000000000000000008152600401611ed393929190612657565b60405180910390fd5b8181035f808673ffffffffffffffffffffffffffffffffffffffff1673ffffffffffffffffffffffffffffffffffffffff1681526020019081526020015f2081905550505b5f73ffffffffffffffffffffffffffffffffffffffff168273ffffffffffffffffffffffffffffffffffffffff1603611f68578060025f8282540392505081905550611fb2565b805f808473ffffffffffffffffffffffffffffffffffffffff1673ffffffffffffffffffffffffffffffffffffffff1681526020019081526020015f205f82825401925050819055505b8173ffffffffffffffffffffffffffffffffffffffff168373ffffffffffffffffffffffffffffffffffffffff167fddf252ad1be2c89b69c2b068fc378daa952ba7f163c4a11628f55a4df523b3ef8360405161200f91906121d7565b60405180910390a3505050565b5f81519050919050565b5f82825260208201905092915050565b5f5b83811015612053578082015181840152602081019050612038565b5f8484015250505050565b5f601f19601f8301169050919050565b5f6120788261201c565b6120828185612026565b9350612092818560208601612036565b61209b8161205e565b840191505092915050565b5f6020820190508181035f8301526120be818461206e565b905092915050565b5f80fd5b5f73ffffffffffffffffffffffffffffffffffffffff82169050919050565b5f6120f3826120ca565b9050919050565b612103816120e9565b811461210d575f80fd5b50565b5f8135905061211e816120fa565b92915050565b5f819050919050565b61213681612124565b8114612140575f80fd5b50565b5f813590506121518161212d565b92915050565b5f806040838503121561216d5761216c6120c6565b5b5f61217a85828601612110565b925050602061218b85828601612143565b9150509250929050565b5f8115159050919050565b6121a981612195565b82525050565b5f6020820190506121c25f8301846121a0565b92915050565b6121d181612124565b82525050565b5f6020820190506121ea5f8301846121c8565b92915050565b5f819050919050565b5f61221361220e612209846120ca565b6121f0565b6120ca565b9050919050565b5f612224826121f9565b9050919050565b5f6122358261221a565b9050919050565b6122458161222b565b82525050565b5f60208201905061225e5f83018461223c565b92915050565b5f61226e8261221a565b9050919050565b61227e81612264565b82525050565b5f6020820190506122975f830184612275565b92915050565b5f805f606084860312156122b4576122b36120c6565b5b5f6122c186828701612110565b93505060206122d286828701612110565b92505060406122e386828701612143565b9150509250925092565b5f60ff82169050919050565b612302816122ed565b82525050565b5f60208201905061231b5f8301846122f9565b92915050565b5f60208284031215612336576123356120c6565b5b5f61234384828501612110565b91505092915050565b612355816120e9565b82525050565b5f60208201905061236e5f83018461234c565b92915050565b5f806040838503121561238a576123896120c6565b5b5f61239785828601612110565b92505060206123a885828601612110565b9150509250929050565b7f4e487b71000000000000000000000000000000000000000000000000000000005f52602260045260245ffd5b5f60028204905060018216806123f657607f821691505b602082108103612409576124086123b2565b5b50919050565b5f6040820190506124225f8301856121c8565b61242f60208301846121c8565b9392505050565b5f6060820190506124495f83018661234c565b612456602083018561234c565b61246360408301846121c8565b949350505050565b61247481612195565b811461247e575f80fd5b50565b5f8151905061248f8161246b565b92915050565b5f602082840312156124aa576124a96120c6565b5b5f6124b784828501612481565b91505092915050565b7f4e487b71000000000000000000000000000000000000000000000000000000005f52601160045260245ffd5b5f6124f782612124565b915061250283612124565b925082820390508181111561251a576125196124c0565b5b92915050565b5f8151905061252e8161212d565b92915050565b5f60208284031215612549576125486120c6565b5b5f61255684828501612520565b91505092915050565b7f4e487b71000000000000000000000000000000000000000000000000000000005f52601260045260245ffd5b5f61259682612124565b91506125a183612124565b9250826125b1576125b061255f565b5b828204905092915050565b5f6125c682612124565b91506125d183612124565b92508282019050808211156125e9576125e86124c0565b5b92915050565b5f6125f982612124565b915061260483612124565b925082820261261281612124565b91508282048414831517612629576126286124c0565b5b5092915050565b5f6040820190506126435f83018561234c565b61265060208301846121c8565b9392505050565b5f60608201905061266a5f83018661234c565b61267760208301856121c8565b61268460408301846121c8565b94935050505056fea26469706673582212206d4fe5257b3a68c1dc09c854313fe55d79b703f1edbb8f8f260c154cbdf7af0264736f6c63430008140033a2646970667358221220f7f9e69c961cbac534846bab73f4247b3ae866f09f2fce09ece88730827e466d64736f6c63430008140033",
    "linkReferences": {}
  },
  "methodIdentifiers": {
    "getVaultAddress(uint256)": "e6bd26a2",
    "hotels(uint256)": "cd338265",
    "isHotelRegistered(uint256)": "8e9d3094",
    "isRegisteredHotel(uint256)": "ee5fd77d",
    "nextHotelId()": "8e4412bb",
    "registerHotel(string,uint256,uint256,uint256,uint256)": "4cf45762",
    "tokenFactory()": "e77772fe",
    "usdcToken()": "11eac855"
  },
  "id": 30
}