{
  "abi": [
    {
      "type": "constructor",
      "inputs": [
        {
          "name": "_usdcToken",
          "type": "address",
          "internalType": "address"
        },
        {
          "name": "_hotelRegistry",
          "type": "address",
          "internalType": "address"
        }
      ],
      "stateMutability": "nonpayable"
    },
    {
      "type": "function",
      "name": "buyLaLoTokens",
      "inputs": [
        {
          "name": "_hotelId",
          "type": "uint256",
          "internalType": "uint256"
        },
        {
          "name": "_buyInUSDC",
          "type": "uint256",
          "internalType": "uint256"
        }
      ],
      "outputs": [],
      "stateMutability": "nonpayable"
    },
    {
      "type": "function",
      "name": "getAuctionEndDate",
      "inputs": [
        {
          "name": "_hotelId",
          "type": "uint256",
          "internalType": "uint256"
        }
      ],
      "outputs": [
        {
          "name": "",
          "type": "uint256",
          "internalType": "uint256"
        }
      ],
      "stateMutability": "view"
    },
    {
      "type": "function",
      "name": "getAvailableRevenues",
      "inputs": [
        {
          "name": "_hotelId",
          "type": "uint256",
          "internalType": "uint256"
        }
      ],
      "outputs": [
        {
          "name": "",
          "type": "uint256",
          "internalType": "uint256"
        }
      ],
      "stateMutability": "view"
    },
    {
      "type": "function",
      "name": "getAvailableTokens",
      "inputs": [
        {
          "name": "_hotelId",
          "type": "uint256",
          "internalType": "uint256"
        }
      ],
      "outputs": [
        {
          "name": "",
          "type": "uint256",
          "internalType": "uint256"
        }
      ],
      "stateMutability": "view"
    },
    {
      "type": "function",
      "name": "getCollectedRevenues",
      "inputs": [
        {
          "name": "_hotelId",
          "type": "uint256",
          "internalType": "uint256"
        }
      ],
      "outputs": [
        {
          "name": "usdcs",
          "type": "uint256",
          "internalType": "uint256"
        }
      ],
      "stateMutability": "view"
    },
    {
      "type": "function",
      "name": "getCurrentTokens",
      "inputs": [
        {
          "name": "_hotelId",
          "type": "uint256",
          "internalType": "uint256"
        }
      ],
      "outputs": [
        {
          "name": "lloTokens",
          "type": "uint256",
          "internalType": "uint256"
        }
      ],
      "stateMutability": "view"
    },
    {
      "type": "function",
      "name": "getMonthTest",
      "inputs": [
        {
          "name": "_hotelId",
          "type": "uint256",
          "internalType": "uint256"
        }
      ],
      "outputs": [
        {
          "name": "month",
          "type": "uint256",
          "internalType": "uint256"
        }
      ],
      "stateMutability": "view"
    },
    {
      "type": "function",
      "name": "getRate",
      "inputs": [
        {
          "name": "_hotelId",
          "type": "uint256",
          "internalType": "uint256"
        }
      ],
      "outputs": [
        {
          "name": "",
          "type": "uint256",
          "internalType": "uint256"
        }
      ],
      "stateMutability": "view"
    },
    {
      "type": "function",
      "name": "getRatio",
      "inputs": [
        {
          "name": "_hotelId",
          "type": "uint256",
          "internalType": "uint256"
        }
      ],
      "outputs": [
        {
          "name": "",
          "type": "uint256",
          "internalType": "uint256"
        }
      ],
      "stateMutability": "view"
    },
    {
      "type": "function",
      "name": "getRemainingPromisedRevenues",
      "inputs": [
        {
          "name": "_hotelId",
          "type": "uint256",
          "internalType": "uint256"
        }
      ],
      "outputs": [
        {
          "name": "remainingRevs",
          "type": "uint256",
          "internalType": "uint256"
        }
      ],
      "stateMutability": "view"
    },
    {
      "type": "function",
      "name": "getTransferLimit",
      "inputs": [
        {
          "name": "_hotelId",
          "type": "uint256",
          "internalType": "uint256"
        }
      ],
      "outputs": [
        {
          "name": "limit",
          "type": "uint256",
          "internalType": "uint256"
        }
      ],
      "stateMutability": "view"
    },
    {
      "type": "function",
      "name": "getVaultAddress",
      "inputs": [
        {
          "name": "_hotelId",
          "type": "uint256",
          "internalType": "uint256"
        }
      ],
      "outputs": [
        {
          "name": "vaultAddress",
          "type": "address",
          "internalType": "address"
        }
      ],
      "stateMutability": "view"
    },
    {
      "type": "function",
      "name": "hotelRegistry",
      "inputs": [],
      "outputs": [
        {
          "name": "",
          "type": "address",
          "internalType": "contract LaLoHotelRegistry"
        }
      ],
      "stateMutability": "view"
    },
    {
      "type": "function",
      "name": "ownerDepositUSDC",
      "inputs": [
        {
          "name": "_hotelId",
          "type": "uint256",
          "internalType": "uint256"
        },
        {
          "name": "_depositInUSDC",
          "type": "uint256",
          "internalType": "uint256"
        }
      ],
      "outputs": [],
      "stateMutability": "nonpayable"
    },
    {
      "type": "function",
      "name": "setMonthTest",
      "inputs": [
        {
          "name": "_hotelId",
          "type": "uint256",
          "internalType": "uint256"
        },
        {
          "name": "_month",
          "type": "uint256",
          "internalType": "uint256"
        }
      ],
      "outputs": [],
      "stateMutability": "nonpayable"
    },
    {
      "type": "function",
      "name": "usdcToken",
      "inputs": [],
      "outputs": [
        {
          "name": "",
          "type": "address",
          "internalType": "contract IERC20"
        }
      ],
      "stateMutability": "view"
    },
    {
      "type": "function",
      "name": "withdrawUSDC",
      "inputs": [
        {
          "name": "_hotelId",
          "type": "uint256",
          "internalType": "uint256"
        },
        {
          "name": "_withdrawInUSDC",
          "type": "uint256",
          "internalType": "uint256"
        }
      ],
      "outputs": [],
      "stateMutability": "nonpayable"
    },
    {
      "type": "event",
      "name": "TokensBought",
      "inputs": [
        {
          "name": "hotelId",
          "type": "uint256",
          "indexed": true,
          "internalType": "uint256"
        },
        {
          "name": "buyer",
          "type": "address",
          "indexed": true,
          "internalType": "address"
        },
        {
          "name": "amount",
          "type": "uint256",
          "indexed": false,
          "internalType": "uint256"
        }
      ],
      "anonymous": false
    },
    {
      "type": "event",
      "name": "USDCDeposit",
      "inputs": [
        {
          "name": "hotelId",
          "type": "uint256",
          "indexed": true,
          "internalType": "uint256"
        },
        {
          "name": "user",
          "type": "address",
          "indexed": true,
          "internalType": "address"
        },
        {
          "name": "amount",
          "type": "uint256",
          "indexed": false,
          "internalType": "uint256"
        }
      ],
      "anonymous": false
    },
    {
      "type": "event",
      "name": "USDCWithdrawn",
      "inputs": [
        {
          "name": "hotelId",
          "type": "uint256",
          "indexed": true,
          "internalType": "uint256"
        },
        {
          "name": "user",
          "type": "address",
          "indexed": true,
          "internalType": "address"
        },
        {
          "name": "shares",
          "type": "uint256",
          "indexed": false,
          "internalType": "uint256"
        }
      ],
      "anonymous": false
    },
    {
      "type": "error",
      "name": "HotelNotRegistered",
      "inputs": []
    },
    {
      "type": "error",
      "name": "InsufficientSharesToWithdraw",
      "inputs": []
    },
    {
      "type": "error",
      "name": "LLOTTransferFailed",
      "inputs": []
    }
  ],
  "bytecode": {
    "object": "0x608060405234801562000010575f80fd5b5060405162001cbb38038062001cbb833981810160405281019062000036919062000122565b815f806101000a81548173ffffffffffffffffffffffffffffffffffffffff021916908373ffffffffffffffffffffffffffffffffffffffff1602179055508060015f6101000a81548173ffffffffffffffffffffffffffffffffffffffff021916908373ffffffffffffffffffffffffffffffffffffffff160217905550505062000167565b5f80fd5b5f73ffffffffffffffffffffffffffffffffffffffff82169050919050565b5f620000ec82620000c1565b9050919050565b620000fe81620000e0565b811462000109575f80fd5b50565b5f815190506200011c81620000f3565b92915050565b5f80604083850312156200013b576200013a620000bd565b5b5f6200014a858286016200010c565b92505060206200015d858286016200010c565b9150509250929050565b611b4680620001755f395ff3fe608060405234801561000f575f80fd5b5060043610610109575f3560e01c806357764094116100a05780639187cb031161006f5780639187cb03146102ed578063a65699f11461031d578063c561085414610339578063e005e77b14610369578063e6bd26a21461039957610109565b8063577640941461025557806364a23efe1461028557806388e08665146102b55780638d591f91146102d157610109565b806334a30cbb116100dc57806334a30cbb14610195578063380ccbc6146101c557806346a62eaf146101f557806346cd59291461022557610109565b806311eac8551461010d57806314ba9c781461012b5780631aa1e685146101495780632d64949714610165575b5f80fd5b6101156103c9565b6040516101229190611842565b60405180910390f35b6101336103ec565b604051610140919061187b565b60405180910390f35b610163600480360381019061015e91906118cb565b610411565b005b61017f600480360381019061017a9190611909565b61051f565b60405161018c9190611943565b60405180910390f35b6101af60048036038101906101aa9190611909565b610641565b6040516101bc9190611943565b60405180910390f35b6101df60048036038101906101da9190611909565b6107cf565b6040516101ec9190611943565b60405180910390f35b61020f600480360381019061020a9190611909565b6108e6565b60405161021c9190611943565b60405180910390f35b61023f600480360381019061023a9190611909565b6109fd565b60405161024c9190611943565b60405180910390f35b61026f600480360381019061026a9190611909565b610b1f565b60405161027c9190611943565b60405180910390f35b61029f600480360381019061029a9190611909565b610c36565b6040516102ac9190611943565b60405180910390f35b6102cf60048036038101906102ca91906118cb565b610d4d565b005b6102eb60048036038101906102e691906118cb565b610f7b565b005b61030760048036038101906103029190611909565b6111a9565b6040516103149190611943565b60405180910390f35b610337600480360381019061033291906118cb565b6112c0565b005b610353600480360381019061034e9190611909565b6114ee565b6040516103609190611943565b60405180910390f35b610383600480360381019061037e9190611909565b611605565b6040516103909190611943565b60405180910390f35b6103b360048036038101906103ae9190611909565b611727565b6040516103c0919061197c565b60405180910390f35b5f8054906101000a900473ffffffffffffffffffffffffffffffffffffffff1681565b60015f9054906101000a900473ffffffffffffffffffffffffffffffffffffffff1681565b5f60015f9054906101000a900473ffffffffffffffffffffffffffffffffffffffff1673ffffffffffffffffffffffffffffffffffffffff1663e6bd26a2846040518263ffffffff1660e01b815260040161046c9190611943565b602060405180830381865afa158015610487573d5f803e3d5ffd5b505050506040513d601f19601f820116820180604052508101906104ab91906119bf565b90505f8190508073ffffffffffffffffffffffffffffffffffffffff1663e6c6f12c33856040518363ffffffff1660e01b81526004016104ec9291906119ea565b5f604051808303815f87803b158015610503575f80fd5b505af1158015610515573d5f803e3d5ffd5b5050505050505050565b5f8060015f9054906101000a900473ffffffffffffffffffffffffffffffffffffffff1673ffffffffffffffffffffffffffffffffffffffff1663e6bd26a2846040518263ffffffff1660e01b815260040161057b9190611943565b602060405180830381865afa158015610596573d5f803e3d5ffd5b505050506040513d601f19601f820116820180604052508101906105ba91906119bf565b90505f8190508073ffffffffffffffffffffffffffffffffffffffff16635f515226336040518263ffffffff1660e01b81526004016105f9919061197c565b602060405180830381865afa158015610614573d5f803e3d5ffd5b505050506040513d601f19601f820116820180604052508101906106389190611a25565b92505050919050565b5f8060015f9054906101000a900473ffffffffffffffffffffffffffffffffffffffff1673ffffffffffffffffffffffffffffffffffffffff1663e6bd26a2846040518263ffffffff1660e01b815260040161069d9190611943565b602060405180830381865afa1580156106b8573d5f803e3d5ffd5b505050506040513d601f19601f820116820180604052508101906106dc91906119bf565b90505f8190508073ffffffffffffffffffffffffffffffffffffffff16630cbf54c86040518163ffffffff1660e01b8152600401602060405180830381865afa15801561072b573d5f803e3d5ffd5b505050506040513d601f19601f8201168201806040525081019061074f9190611a25565b8173ffffffffffffffffffffffffffffffffffffffff1663b30930cc6040518163ffffffff1660e01b8152600401602060405180830381865afa158015610798573d5f803e3d5ffd5b505050506040513d601f19601f820116820180604052508101906107bc9190611a25565b6107c69190611a7d565b92505050919050565b5f8060015f9054906101000a900473ffffffffffffffffffffffffffffffffffffffff1673ffffffffffffffffffffffffffffffffffffffff1663e6bd26a2846040518263ffffffff1660e01b815260040161082b9190611943565b602060405180830381865afa158015610846573d5f803e3d5ffd5b505050506040513d601f19601f8201168201806040525081019061086a91906119bf565b90505f8190508073ffffffffffffffffffffffffffffffffffffffff1663578dae4f6040518163ffffffff1660e01b8152600401602060405180830381865afa1580156108b9573d5f803e3d5ffd5b505050506040513d601f19601f820116820180604052508101906108dd9190611a25565b92505050919050565b5f8060015f9054906101000a900473ffffffffffffffffffffffffffffffffffffffff1673ffffffffffffffffffffffffffffffffffffffff1663e6bd26a2846040518263ffffffff1660e01b81526004016109429190611943565b602060405180830381865afa15801561095d573d5f803e3d5ffd5b505050506040513d601f19601f8201168201806040525081019061098191906119bf565b90505f8190508073ffffffffffffffffffffffffffffffffffffffff166371ca337d6040518163ffffffff1660e01b8152600401602060405180830381865afa1580156109d0573d5f803e3d5ffd5b505050506040513d601f19601f820116820180604052508101906109f49190611a25565b92505050919050565b5f8060015f9054906101000a900473ffffffffffffffffffffffffffffffffffffffff1673ffffffffffffffffffffffffffffffffffffffff1663e6bd26a2846040518263ffffffff1660e01b8152600401610a599190611943565b602060405180830381865afa158015610a74573d5f803e3d5ffd5b505050506040513d601f19601f82011682018060405250810190610a9891906119bf565b90505f8190508073ffffffffffffffffffffffffffffffffffffffff16635edf9e61336040518263ffffffff1660e01b8152600401610ad7919061197c565b602060405180830381865afa158015610af2573d5f803e3d5ffd5b505050506040513d601f19601f82011682018060405250810190610b169190611a25565b92505050919050565b5f8060015f9054906101000a900473ffffffffffffffffffffffffffffffffffffffff1673ffffffffffffffffffffffffffffffffffffffff1663e6bd26a2846040518263ffffffff1660e01b8152600401610b7b9190611943565b602060405180830381865afa158015610b96573d5f803e3d5ffd5b505050506040513d601f19601f82011682018060405250810190610bba91906119bf565b90505f8190508073ffffffffffffffffffffffffffffffffffffffff16632c4e722e6040518163ffffffff1660e01b8152600401602060405180830381865afa158015610c09573d5f803e3d5ffd5b505050506040513d601f19601f82011682018060405250810190610c2d9190611a25565b92505050919050565b5f8060015f9054906101000a900473ffffffffffffffffffffffffffffffffffffffff1673ffffffffffffffffffffffffffffffffffffffff1663e6bd26a2846040518263ffffffff1660e01b8152600401610c929190611943565b602060405180830381865afa158015610cad573d5f803e3d5ffd5b505050506040513d601f19601f82011682018060405250810190610cd191906119bf565b90505f8190508073ffffffffffffffffffffffffffffffffffffffff16639b4f19c66040518163ffffffff1660e01b8152600401602060405180830381865afa158015610d20573d5f803e3d5ffd5b505050506040513d601f19601f82011682018060405250810190610d449190611a25565b92505050919050565b8160015f9054906101000a900473ffffffffffffffffffffffffffffffffffffffff1673ffffffffffffffffffffffffffffffffffffffff16638e9d3094826040518263ffffffff1660e01b8152600401610da89190611943565b602060405180830381865afa158015610dc3573d5f803e3d5ffd5b505050506040513d601f19601f82011682018060405250810190610de79190611ae5565b610e1d576040517f27b041fd00000000000000000000000000000000000000000000000000000000815260040160405180910390fd5b5f60015f9054906101000a900473ffffffffffffffffffffffffffffffffffffffff1673ffffffffffffffffffffffffffffffffffffffff1663e6bd26a2856040518263ffffffff1660e01b8152600401610e789190611943565b602060405180830381865afa158015610e93573d5f803e3d5ffd5b505050506040513d601f19601f82011682018060405250810190610eb791906119bf565b90505f8190508073ffffffffffffffffffffffffffffffffffffffff1663f3fef3a333866040518363ffffffff1660e01b8152600401610ef89291906119ea565b5f604051808303815f87803b158015610f0f575f80fd5b505af1158015610f21573d5f803e3d5ffd5b505050503373ffffffffffffffffffffffffffffffffffffffff16857fc97cf3039f594c8da814b88e53e8c8d9c46d4535a2670d2ba5f71959adf2760586604051610f6c9190611943565b60405180910390a35050505050565b8160015f9054906101000a900473ffffffffffffffffffffffffffffffffffffffff1673ffffffffffffffffffffffffffffffffffffffff16638e9d3094826040518263ffffffff1660e01b8152600401610fd69190611943565b602060405180830381865afa158015610ff1573d5f803e3d5ffd5b505050506040513d601f19601f820116820180604052508101906110159190611ae5565b61104b576040517f27b041fd00000000000000000000000000000000000000000000000000000000815260040160405180910390fd5b5f60015f9054906101000a900473ffffffffffffffffffffffffffffffffffffffff1673ffffffffffffffffffffffffffffffffffffffff1663e6bd26a2856040518263ffffffff1660e01b81526004016110a69190611943565b602060405180830381865afa1580156110c1573d5f803e3d5ffd5b505050506040513d601f19601f820116820180604052508101906110e591906119bf565b90505f8190508073ffffffffffffffffffffffffffffffffffffffff166347e7ef2433866040518363ffffffff1660e01b81526004016111269291906119ea565b5f604051808303815f87803b15801561113d575f80fd5b505af115801561114f573d5f803e3d5ffd5b505050503373ffffffffffffffffffffffffffffffffffffffff16857fc97cf3039f594c8da814b88e53e8c8d9c46d4535a2670d2ba5f71959adf276058660405161119a9190611943565b60405180910390a35050505050565b5f8060015f9054906101000a900473ffffffffffffffffffffffffffffffffffffffff1673ffffffffffffffffffffffffffffffffffffffff1663e6bd26a2846040518263ffffffff1660e01b81526004016112059190611943565b602060405180830381865afa158015611220573d5f803e3d5ffd5b505050506040513d601f19601f8201168201806040525081019061124491906119bf565b90505f8190508073ffffffffffffffffffffffffffffffffffffffff1663e35568cb6040518163ffffffff1660e01b8152600401602060405180830381865afa158015611293573d5f803e3d5ffd5b505050506040513d601f19601f820116820180604052508101906112b79190611a25565b92505050919050565b8160015f9054906101000a900473ffffffffffffffffffffffffffffffffffffffff1673ffffffffffffffffffffffffffffffffffffffff16638e9d3094826040518263ffffffff1660e01b815260040161131b9190611943565b602060405180830381865afa158015611336573d5f803e3d5ffd5b505050506040513d601f19601f8201168201806040525081019061135a9190611ae5565b611390576040517f27b041fd00000000000000000000000000000000000000000000000000000000815260040160405180910390fd5b5f60015f9054906101000a900473ffffffffffffffffffffffffffffffffffffffff1673ffffffffffffffffffffffffffffffffffffffff1663e6bd26a2856040518263ffffffff1660e01b81526004016113eb9190611943565b602060405180830381865afa158015611406573d5f803e3d5ffd5b505050506040513d601f19601f8201168201806040525081019061142a91906119bf565b90505f8190508073ffffffffffffffffffffffffffffffffffffffff16636945b12333866040518363ffffffff1660e01b815260040161146b9291906119ea565b5f604051808303815f87803b158015611482575f80fd5b505af1158015611494573d5f803e3d5ffd5b505050503373ffffffffffffffffffffffffffffffffffffffff16857fe6097132eb453030fc61413d25e83714650c696033355fb29680d060df389c65866040516114df9190611943565b60405180910390a35050505050565b5f8060015f9054906101000a900473ffffffffffffffffffffffffffffffffffffffff1673ffffffffffffffffffffffffffffffffffffffff1663e6bd26a2846040518263ffffffff1660e01b815260040161154a9190611943565b602060405180830381865afa158015611565573d5f803e3d5ffd5b505050506040513d601f19601f8201168201806040525081019061158991906119bf565b90505f8190508073ffffffffffffffffffffffffffffffffffffffff1663a79a7f6d6040518163ffffffff1660e01b8152600401602060405180830381865afa1580156115d8573d5f803e3d5ffd5b505050506040513d601f19601f820116820180604052508101906115fc9190611a25565b92505050919050565b5f8060015f9054906101000a900473ffffffffffffffffffffffffffffffffffffffff1673ffffffffffffffffffffffffffffffffffffffff1663e6bd26a2846040518263ffffffff1660e01b81526004016116619190611943565b602060405180830381865afa15801561167c573d5f803e3d5ffd5b505050506040513d601f19601f820116820180604052508101906116a091906119bf565b90505f8190508073ffffffffffffffffffffffffffffffffffffffff16633f795cc0336040518263ffffffff1660e01b81526004016116df919061197c565b602060405180830381865afa1580156116fa573d5f803e3d5ffd5b505050506040513d601f19601f8201168201806040525081019061171e9190611a25565b92505050919050565b5f60015f9054906101000a900473ffffffffffffffffffffffffffffffffffffffff1673ffffffffffffffffffffffffffffffffffffffff1663e6bd26a2836040518263ffffffff1660e01b81526004016117829190611943565b602060405180830381865afa15801561179d573d5f803e3d5ffd5b505050506040513d601f19601f820116820180604052508101906117c191906119bf565b9050919050565b5f73ffffffffffffffffffffffffffffffffffffffff82169050919050565b5f819050919050565b5f61180a611805611800846117c8565b6117e7565b6117c8565b9050919050565b5f61181b826117f0565b9050919050565b5f61182c82611811565b9050919050565b61183c81611822565b82525050565b5f6020820190506118555f830184611833565b92915050565b5f61186582611811565b9050919050565b6118758161185b565b82525050565b5f60208201905061188e5f83018461186c565b92915050565b5f80fd5b5f819050919050565b6118aa81611898565b81146118b4575f80fd5b50565b5f813590506118c5816118a1565b92915050565b5f80604083850312156118e1576118e0611894565b5b5f6118ee858286016118b7565b92505060206118ff858286016118b7565b9150509250929050565b5f6020828403121561191e5761191d611894565b5b5f61192b848285016118b7565b91505092915050565b61193d81611898565b82525050565b5f6020820190506119565f830184611934565b92915050565b5f611966826117c8565b9050919050565b6119768161195c565b82525050565b5f60208201905061198f5f83018461196d565b92915050565b61199e8161195c565b81146119a8575f80fd5b50565b5f815190506119b981611995565b92915050565b5f602082840312156119d4576119d3611894565b5b5f6119e1848285016119ab565b91505092915050565b5f6040820190506119fd5f83018561196d565b611a0a6020830184611934565b9392505050565b5f81519050611a1f816118a1565b92915050565b5f60208284031215611a3a57611a39611894565b5b5f611a4784828501611a11565b91505092915050565b7f4e487b71000000000000000000000000000000000000000000000000000000005f52601160045260245ffd5b5f611a8782611898565b9150611a9283611898565b9250828201905080821115611aaa57611aa9611a50565b5b92915050565b5f8115159050919050565b611ac481611ab0565b8114611ace575f80fd5b50565b5f81519050611adf81611abb565b92915050565b5f60208284031215611afa57611af9611894565b5b5f611b0784828501611ad1565b9150509291505056fea26469706673582212208891c7a646969406f7934c6dca0dc73b274ad87633d432f2fa2ced172cf7d7a464736f6c63430008140033",
    "linkReferences": {}
  },
  "methodIdentifiers": {
    "buyLaLoTokens(uint256,uint256)": "a65699f1",
    "getAuctionEndDate(uint256)": "34a30cbb",
    "getAvailableRevenues(uint256)": "380ccbc6",
    "getAvailableTokens(uint256)": "9187cb03",
    "getCollectedRevenues(uint256)": "e005e77b",
    "getCurrentTokens(uint256)": "2d649497",
    "getMonthTest(uint256)": "64a23efe",
    "getRate(uint256)": "57764094",
    "getRatio(uint256)": "46a62eaf",
    "getRemainingPromisedRevenues(uint256)": "c5610854",
    "getTransferLimit(uint256)": "46cd5929",
    "getVaultAddress(uint256)": "e6bd26a2",
    "hotelRegistry()": "14ba9c78",
    "ownerDepositUSDC(uint256,uint256)": "8d591f91",
    "setMonthTest(uint256,uint256)": "1aa1e685",
    "usdcToken()": "11eac855",
    "withdrawUSDC(uint256,uint256)": "88e08665"
  },
  "id": 33
}