{
  "abi": [
    {
      "type": "constructor",
      "inputs": [],
      "stateMutability": "nonpayable"
    },
    {
      "type": "function",
      "name": "acceptOwnership",
      "inputs": [],
      "outputs": [],
      "stateMutability": "nonpayable"
    },
    {
      "type": "function",
      "name": "fee",
      "inputs": [],
      "outputs": [
        {
          "name": "",
          "type": "uint256",
          "internalType": "uint256"
        }
      ],
      "stateMutability": "view"
    },
    {
      "type": "function",
      "name": "fulfill",
      "inputs": [
        {
          "name": "_requestId",
          "type": "bytes32",
          "internalType": "bytes32"
        },
        {
          "name": "_data",
          "type": "uint256",
          "internalType": "uint256"
        }
      ],
      "outputs": [],
      "stateMutability": "nonpayable"
    },
    {
      "type": "function",
      "name": "jobId",
      "inputs": [],
      "outputs": [
        {
          "name": "",
          "type": "bytes32",
          "internalType": "bytes32"
        }
      ],
      "stateMutability": "view"
    },
    {
      "type": "function",
      "name": "oracleAddress",
      "inputs": [],
      "outputs": [
        {
          "name": "",
          "type": "address",
          "internalType": "address"
        }
      ],
      "stateMutability": "view"
    },
    {
      "type": "function",
      "name": "owner",
      "inputs": [],
      "outputs": [
        {
          "name": "",
          "type": "address",
          "internalType": "address"
        }
      ],
      "stateMutability": "view"
    },
    {
      "type": "function",
      "name": "requestRevenue",
      "inputs": [
        {
          "name": "vaultAddress",
          "type": "address",
          "internalType": "address"
        },
        {
          "name": "period",
          "type": "string",
          "internalType": "string"
        }
      ],
      "outputs": [],
      "stateMutability": "nonpayable"
    },
    {
      "type": "function",
      "name": "responses",
      "inputs": [
        {
          "name": "",
          "type": "address",
          "internalType": "address"
        },
        {
          "name": "",
          "type": "string",
          "internalType": "string"
        }
      ],
      "outputs": [
        {
          "name": "",
          "type": "uint256",
          "internalType": "uint256"
        }
      ],
      "stateMutability": "view"
    },
    {
      "type": "function",
      "name": "transferOwnership",
      "inputs": [
        {
          "name": "to",
          "type": "address",
          "internalType": "address"
        }
      ],
      "outputs": [],
      "stateMutability": "nonpayable"
    },
    {
      "type": "event",
      "name": "ChainlinkCancelled",
      "inputs": [
        {
          "name": "id",
          "type": "bytes32",
          "indexed": true,
          "internalType": "bytes32"
        }
      ],
      "anonymous": false
    },
    {
      "type": "event",
      "name": "ChainlinkFulfilled",
      "inputs": [
        {
          "name": "id",
          "type": "bytes32",
          "indexed": true,
          "internalType": "bytes32"
        }
      ],
      "anonymous": false
    },
    {
      "type": "event",
      "name": "ChainlinkRequested",
      "inputs": [
        {
          "name": "id",
          "type": "bytes32",
          "indexed": true,
          "internalType": "bytes32"
        }
      ],
      "anonymous": false
    },
    {
      "type": "event",
      "name": "OwnershipTransferRequested",
      "inputs": [
        {
          "name": "from",
          "type": "address",
          "indexed": true,
          "internalType": "address"
        },
        {
          "name": "to",
          "type": "address",
          "indexed": true,
          "internalType": "address"
        }
      ],
      "anonymous": false
    },
    {
      "type": "event",
      "name": "OwnershipTransferred",
      "inputs": [
        {
          "name": "from",
          "type": "address",
          "indexed": true,
          "internalType": "address"
        },
        {
          "name": "to",
          "type": "address",
          "indexed": true,
          "internalType": "address"
        }
      ],
      "anonymous": false
    }
  ],
  "bytecode": {
    "object": "0x6080604052600160045534801562000015575f80fd5b5033805f8073ffffffffffffffffffffffffffffffffffffffff168273ffffffffffffffffffffffffffffffffffffffff16036200008a576040517f08c379a0000000000000000000000000000000000000000000000000000000008152600401620000819062000405565b60405180910390fd5b8160065f6101000a81548173ffffffffffffffffffffffffffffffffffffffff021916908373ffffffffffffffffffffffffffffffffffffffff1602179055505f73ffffffffffffffffffffffffffffffffffffffff168173ffffffffffffffffffffffffffffffffffffffff161462000110576200010f81620001f260201b60201c565b5b5050506200013873779877a7b0d9e8603169ddbd7836e478b46247896200032160201b60201c565b730facf846af22bce1c7f88d1d55a038f27747ed2b600a5f6101000a81548173ffffffffffffffffffffffffffffffffffffffff021916908373ffffffffffffffffffffffffffffffffffffffff160217905550620001be600a5f9054906101000a900473ffffffffffffffffffffffffffffffffffffffff166200036460201b60201c565b7f6138333536663438353639633433346561613461633566636234646235636330600b819055505f600c8190555062000493565b3373ffffffffffffffffffffffffffffffffffffffff168173ffffffffffffffffffffffffffffffffffffffff160362000263576040517f08c379a00000000000000000000000000000000000000000000000000000000081526004016200025a9062000473565b60405180910390fd5b8060075f6101000a81548173ffffffffffffffffffffffffffffffffffffffff021916908373ffffffffffffffffffffffffffffffffffffffff1602179055508073ffffffffffffffffffffffffffffffffffffffff1660065f9054906101000a900473ffffffffffffffffffffffffffffffffffffffff1673ffffffffffffffffffffffffffffffffffffffff167fed8889f560326eb138920d842192f0eb3dd22b4f139c87a2c57538e05bae127860405160405180910390a350565b8060025f6101000a81548173ffffffffffffffffffffffffffffffffffffffff021916908373ffffffffffffffffffffffffffffffffffffffff16021790555050565b8060035f6101000a81548173ffffffffffffffffffffffffffffffffffffffff021916908373ffffffffffffffffffffffffffffffffffffffff16021790555050565b5f82825260208201905092915050565b7f43616e6e6f7420736574206f776e657220746f207a65726f00000000000000005f82015250565b5f620003ed601883620003a7565b9150620003fa82620003b7565b602082019050919050565b5f6020820190508181035f8301526200041e81620003df565b9050919050565b7f43616e6e6f74207472616e7366657220746f2073656c660000000000000000005f82015250565b5f6200045b601783620003a7565b9150620004688262000425565b602082019050919050565b5f6020820190508181035f8301526200048c816200044d565b9050919050565b612b4280620004a15f395ff3fe608060405234801561000f575f80fd5b5060043610610091575f3560e01c8063c2939d9711610064578063c2939d97146100f7578063cf48bf8a14610115578063ddca3f4314610131578063ddfb49201461014f578063f2fde38b1461017f57610091565b80634357855e1461009557806379ba5097146100b15780638da5cb5b146100bb578063a89ae4ba146100d9575b5f80fd5b6100af60048036038101906100aa9190611a0c565b61019b565b005b6100b9610450565b005b6100c36105e1565b6040516100d09190611a89565b60405180910390f35b6100e1610609565b6040516100ee9190611a89565b60405180910390f35b6100ff61062e565b60405161010c9190611ab1565b60405180910390f35b61012f600480360381019061012a9190611c30565b610634565b005b6101396109fc565b6040516101469190611c99565b60405180910390f35b61016960048036038101906101649190611c30565b610a02565b6040516101769190611c99565b60405180910390f35b61019960048036038101906101949190611cb2565b610a3a565b005b8160055f8281526020019081526020015f205f9054906101000a900473ffffffffffffffffffffffffffffffffffffffff1673ffffffffffffffffffffffffffffffffffffffff163373ffffffffffffffffffffffffffffffffffffffff161461023a576040517f08c379a000000000000000000000000000000000000000000000000000000000815260040161023190611d5d565b60405180910390fd5b60055f8281526020019081526020015f205f6101000a81549073ffffffffffffffffffffffffffffffffffffffff0219169055807f7cc135e0cebb02c3480ae5d74d377283180a2601f8f644edf7987b009316c63a60405160405180910390a25f60095f8581526020019081526020015f206040518060400160405290815f82015f9054906101000a900473ffffffffffffffffffffffffffffffffffffffff1673ffffffffffffffffffffffffffffffffffffffff1673ffffffffffffffffffffffffffffffffffffffff16815260200160018201805461031b90611da8565b80601f016020809104026020016040519081016040528092919081815260200182805461034790611da8565b80156103925780601f1061036957610100808354040283529160200191610392565b820191905f5260205f20905b81548152906001019060200180831161037557829003601f168201915b50505050508152505090508260085f835f015173ffffffffffffffffffffffffffffffffffffffff1673ffffffffffffffffffffffffffffffffffffffff1681526020019081526020015f2082602001516040516103f09190611e44565b90815260200160405180910390208190555060095f8581526020019081526020015f205f8082015f6101000a81549073ffffffffffffffffffffffffffffffffffffffff0219169055600182015f61044891906118bb565b505050505050565b60075f9054906101000a900473ffffffffffffffffffffffffffffffffffffffff1673ffffffffffffffffffffffffffffffffffffffff163373ffffffffffffffffffffffffffffffffffffffff16146104df576040517f08c379a00000000000000000000000000000000000000000000000000000000081526004016104d690611ea4565b60405180910390fd5b5f60065f9054906101000a900473ffffffffffffffffffffffffffffffffffffffff1690503360065f6101000a81548173ffffffffffffffffffffffffffffffffffffffff021916908373ffffffffffffffffffffffffffffffffffffffff1602179055505f60075f6101000a81548173ffffffffffffffffffffffffffffffffffffffff021916908373ffffffffffffffffffffffffffffffffffffffff1602179055503373ffffffffffffffffffffffffffffffffffffffff168173ffffffffffffffffffffffffffffffffffffffff167f8be0079c531659141344cd1fd0a4f28419497f9722a3daafe3b4186f6b6457e060405160405180910390a350565b5f60065f9054906101000a900473ffffffffffffffffffffffffffffffffffffffff16905090565b600a5f9054906101000a900473ffffffffffffffffffffffffffffffffffffffff1681565b600b5481565b5f610648600b54634357855e60e01b610a4e565b90506106c96040518060400160405280600681526020017f6d6574686f6400000000000000000000000000000000000000000000000000008152506040518060400160405280600481526020017f504f53540000000000000000000000000000000000000000000000000000000081525083610a7e9092919063ffffffff16565b61072b6040518060400160405280600381526020017f75726c00000000000000000000000000000000000000000000000000000000008152506040518060600160405280602e8152602001612abb602e913983610a7e9092919063ffffffff16565b61078d6040518060400160405280600781526020017f6865616465727300000000000000000000000000000000000000000000000000815250604051806060016040528060248152602001612ae96024913983610a7e9092919063ffffffff16565b5f61079784610ab1565b836040516020016107a9929190611fc6565b60405160208183030381529060405290506108046040518060400160405280600481526020017f626f6479000000000000000000000000000000000000000000000000000000008152508284610a7e9092919063ffffffff16565b6108836040518060400160405280600481526020017f70617468000000000000000000000000000000000000000000000000000000008152506040518060400160405280600681526020017f726573756c74000000000000000000000000000000000000000000000000000081525084610a7e9092919063ffffffff16565b6108ce6040518060400160405280600a81526020017f6d756c7469706c69657200000000000000000000000000000000000000000000815250600184610d3e9092919063ffffffff16565b61094d6040518060400160405280600781526020017f636f6e74616374000000000000000000000000000000000000000000000000008152506040518060400160405280601981526020017f7969747a68616b65746d616e616c7540676d61696c2e636f6d0000000000000081525084610a7e9092919063ffffffff16565b5f61095a83600c54610d71565b905060405180604001604052808673ffffffffffffffffffffffffffffffffffffffff1681526020018581525060095f8381526020019081526020015f205f820151815f015f6101000a81548173ffffffffffffffffffffffffffffffffffffffff021916908373ffffffffffffffffffffffffffffffffffffffff16021790555060208201518160010190816109f191906121a7565b509050505050505050565b600c5481565b6008602052815f5260405f20818051602081018201805184825260208301602085012081835280955050505050505f91509150505481565b610a42610da6565b610a4b81610e37565b50565b610a566118f8565b610a5e6118f8565b610a7584308584610f63909392919063ffffffff16565b91505092915050565b610a9582846080015161101290919063ffffffff16565b610aac81846080015161101290919063ffffffff16565b505050565b60605f602a67ffffffffffffffff811115610acf57610ace611b0c565b5b6040519080825280601f01601f191660200182016040528015610b015781602001600182028036833780820191505090505b5090507f3000000000000000000000000000000000000000000000000000000000000000815f81518110610b3857610b37612276565b5b60200101907effffffffffffffffffffffffffffffffffffffffffffffffffffffffffffff191690815f1a9053507f780000000000000000000000000000000000000000000000000000000000000081600181518110610b9b57610b9a612276565b5b60200101907effffffffffffffffffffffffffffffffffffffffffffffffffffffffffffff191690815f1a9053505f5b6014811015610d34575f816013610be291906122d0565b6008610bee9190612303565b6002610bfa9190612473565b8573ffffffffffffffffffffffffffffffffffffffff16610c1b91906124ea565b60f81b90505f60108260f81c610c319190612526565b60f81b90505f8160f81c6010610c479190612556565b8360f81c610c559190612592565b60f81b9050610c6382611037565b85856002610c719190612303565b6002610c7d91906125c6565b81518110610c8e57610c8d612276565b5b60200101907effffffffffffffffffffffffffffffffffffffffffffffffffffffffffffff191690815f1a905350610cc581611037565b85856002610cd39190612303565b6003610cdf91906125c6565b81518110610cf057610cef612276565b5b60200101907effffffffffffffffffffffffffffffffffffffffffffffffffffffffffffff191690815f1a9053505050508080610d2c906125f9565b915050610bcb565b5080915050919050565b610d5582846080015161101290919063ffffffff16565b610d6c81846080015161107c90919063ffffffff16565b505050565b5f610d9e60035f9054906101000a900473ffffffffffffffffffffffffffffffffffffffff168484611127565b905092915050565b60065f9054906101000a900473ffffffffffffffffffffffffffffffffffffffff1673ffffffffffffffffffffffffffffffffffffffff163373ffffffffffffffffffffffffffffffffffffffff1614610e35576040517f08c379a0000000000000000000000000000000000000000000000000000000008152600401610e2c9061268a565b60405180910390fd5b565b3373ffffffffffffffffffffffffffffffffffffffff168173ffffffffffffffffffffffffffffffffffffffff1603610ea5576040517f08c379a0000000000000000000000000000000000000000000000000000000008152600401610e9c906126f2565b60405180910390fd5b8060075f6101000a81548173ffffffffffffffffffffffffffffffffffffffff021916908373ffffffffffffffffffffffffffffffffffffffff1602179055508073ffffffffffffffffffffffffffffffffffffffff1660065f9054906101000a900473ffffffffffffffffffffffffffffffffffffffff1673ffffffffffffffffffffffffffffffffffffffff167fed8889f560326eb138920d842192f0eb3dd22b4f139c87a2c57538e05bae127860405160405180910390a350565b610f6b6118f8565b610f7b85608001516101006111ec565b5083855f01818152505082856020019073ffffffffffffffffffffffffffffffffffffffff16908173ffffffffffffffffffffffffffffffffffffffff16815250508185604001907bffffffffffffffffffffffffffffffffffffffffffffffffffffffff191690817bffffffffffffffffffffffffffffffffffffffffffffffffffffffff191681525050849050949350505050565b61101f8260038351611254565b61103281836113d990919063ffffffff16565b505050565b5f600a8260f81c60ff1610156110615760308260f81c6110579190612710565b60f81b9050611077565b60578260f81c6110719190612710565b60f81b90505b919050565b7fffffffffffffffffffffffffffffffffffffffffffffffff00000000000000008112156110b3576110ae82826113fa565b611123565b67ffffffffffffffff8113156110d2576110cd8282611471565b611122565b5f81126110e9576110e4825f83611254565b611121565b611120826001837fffffffffffffffffffffffffffffffffffffffffffffffffffffffffffffffff61111b919061274d565b611254565b5b5b5b5050565b5f80600454905060018161113b91906125c6565b6004819055505f633c6d41b960e01b5f80875f015188604001518660028b608001515f01516040516024016111769796959493929190612819565b604051602081830303815290604052907bffffffffffffffffffffffffffffffffffffffffffffffffffffffff19166020820180517bffffffffffffffffffffffffffffffffffffffffffffffffffffffff838183161783525050505090506111e1868386846114bd565b925050509392505050565b6111f4611961565b5f602083611202919061288d565b1461122e57602082611214919061288d565b602061122091906122d0565b8261122b91906125c6565b91505b818360200181815250506040518084525f81528281016020016040525082905092915050565b60178167ffffffffffffffff161161128b576112858160058460ff16901b60ff16178461164a90919063ffffffff16565b506113d4565b60ff8167ffffffffffffffff16116112e1576112ba601860058460ff16901b178461164a90919063ffffffff16565b506112db8167ffffffffffffffff166001856116699092919063ffffffff16565b506113d3565b61ffff8167ffffffffffffffff161161133857611311601960058460ff16901b178461164a90919063ffffffff16565b506113328167ffffffffffffffff166002856116699092919063ffffffff16565b506113d2565b63ffffffff8167ffffffffffffffff16116113915761136a601a60058460ff16901b178461164a90919063ffffffff16565b5061138b8167ffffffffffffffff166004856116699092919063ffffffff16565b506113d1565b6113ae601b60058460ff16901b178461164a90919063ffffffff16565b506113cf8167ffffffffffffffff166008856116699092919063ffffffff16565b505b5b5b5b505050565b6113e1611961565b6113f283845f01515184855161168a565b905092915050565b61141860036005600660ff16901b178361164a90919063ffffffff16565b5061146d82827fffffffffffffffffffffffffffffffffffffffffffffffffffffffffffffffff611449919061274d565b6040516020016114599190611c99565b604051602081830303815290604052611776565b5050565b61148f60026005600660ff16901b178361164a90919063ffffffff16565b506114b982826040516020016114a59190611c99565b604051602081830303815290604052611776565b5050565b5f30846040516020016114d1929190612965565b6040516020818303038152906040528051906020012090508460055f8381526020019081526020015f205f6101000a81548173ffffffffffffffffffffffffffffffffffffffff021916908373ffffffffffffffffffffffffffffffffffffffff160217905550807fb5e6e01e79f91267dc17b4e6314d5d4d03593d2ceee0fbb452b750bd70ea5af960405160405180910390a260025f9054906101000a900473ffffffffffffffffffffffffffffffffffffffff1673ffffffffffffffffffffffffffffffffffffffff16634000aea08685856040518463ffffffff1660e01b81526004016115c393929190612990565b6020604051808303815f875af11580156115df573d5f803e3d5ffd5b505050506040513d601f19601f820116820180604052508101906116039190612a01565b611642576040517f08c379a000000000000000000000000000000000000000000000000000000000815260040161163990612a9c565b60405180910390fd5b949350505050565b611652611961565b61166183845f0151518461179b565b905092915050565b611671611961565b61168184855f01515185856117f1565b90509392505050565b611692611961565b825182111561169f575f80fd5b846020015182856116b091906125c6565b11156116e5576116e48560026116d5886020015188876116d091906125c6565b61187e565b6116df9190612303565b611899565b5b5f808651805187602083010193508088870111156117035787860182525b60208701925050505b6020841061174a578051825260208261172591906125c6565b915060208161173491906125c6565b905060208461174391906122d0565b935061170c565b5f6001856020036101000a03905080198251168184511681811785525050508692505050949350505050565b6117838260028351611254565b61179681836113d990919063ffffffff16565b505050565b6117a3611961565b836020015183106117c9576117c884600286602001516117c39190612303565b611899565b5b835180516020858301018481538186036117e4576001820183525b5050508390509392505050565b6117f9611961565b8460200151848361180a91906125c6565b111561183257611831856002868561182291906125c6565b61182c9190612303565b611899565b5b5f6001836101006118439190612473565b61184d91906122d0565b905085518386820101858319825116178152815185880111156118705784870182525b505085915050949350505050565b5f8183111561188f57829050611893565b8190505b92915050565b5f825f015190506118aa83836111ec565b506118b583826113d9565b50505050565b5080546118c790611da8565b5f825580601f106118d857506118f5565b601f0160209004905f5260205f20908101906118f4919061197a565b5b50565b6040518060a001604052805f80191681526020015f73ffffffffffffffffffffffffffffffffffffffff1681526020015f7bffffffffffffffffffffffffffffffffffffffffffffffffffffffff191681526020015f815260200161195b611961565b81525090565b6040518060400160405280606081526020015f81525090565b5b80821115611991575f815f90555060010161197b565b5090565b5f604051905090565b5f80fd5b5f80fd5b5f819050919050565b6119b8816119a6565b81146119c2575f80fd5b50565b5f813590506119d3816119af565b92915050565b5f819050919050565b6119eb816119d9565b81146119f5575f80fd5b50565b5f81359050611a06816119e2565b92915050565b5f8060408385031215611a2257611a2161199e565b5b5f611a2f858286016119c5565b9250506020611a40858286016119f8565b9150509250929050565b5f73ffffffffffffffffffffffffffffffffffffffff82169050919050565b5f611a7382611a4a565b9050919050565b611a8381611a69565b82525050565b5f602082019050611a9c5f830184611a7a565b92915050565b611aab816119a6565b82525050565b5f602082019050611ac45f830184611aa2565b92915050565b611ad381611a69565b8114611add575f80fd5b50565b5f81359050611aee81611aca565b92915050565b5f80fd5b5f80fd5b5f601f19601f8301169050919050565b7f4e487b71000000000000000000000000000000000000000000000000000000005f52604160045260245ffd5b611b4282611afc565b810181811067ffffffffffffffff82111715611b6157611b60611b0c565b5b80604052505050565b5f611b73611995565b9050611b7f8282611b39565b919050565b5f67ffffffffffffffff821115611b9e57611b9d611b0c565b5b611ba782611afc565b9050602081019050919050565b828183375f83830152505050565b5f611bd4611bcf84611b84565b611b6a565b905082815260208101848484011115611bf057611bef611af8565b5b611bfb848285611bb4565b509392505050565b5f82601f830112611c1757611c16611af4565b5b8135611c27848260208601611bc2565b91505092915050565b5f8060408385031215611c4657611c4561199e565b5b5f611c5385828601611ae0565b925050602083013567ffffffffffffffff811115611c7457611c736119a2565b5b611c8085828601611c03565b9150509250929050565b611c93816119d9565b82525050565b5f602082019050611cac5f830184611c8a565b92915050565b5f60208284031215611cc757611cc661199e565b5b5f611cd484828501611ae0565b91505092915050565b5f82825260208201905092915050565b7f536f75726365206d75737420626520746865206f7261636c65206f66207468655f8201527f2072657175657374000000000000000000000000000000000000000000000000602082015250565b5f611d47602883611cdd565b9150611d5282611ced565b604082019050919050565b5f6020820190508181035f830152611d7481611d3b565b9050919050565b7f4e487b71000000000000000000000000000000000000000000000000000000005f52602260045260245ffd5b5f6002820490506001821680611dbf57607f821691505b602082108103611dd257611dd1611d7b565b5b50919050565b5f81519050919050565b5f81905092915050565b5f5b83811015611e09578082015181840152602081019050611dee565b5f8484015250505050565b5f611e1e82611dd8565b611e288185611de2565b9350611e38818560208601611dec565b80840191505092915050565b5f611e4f8284611e14565b915081905092915050565b7f4d7573742062652070726f706f736564206f776e6572000000000000000000005f82015250565b5f611e8e601683611cdd565b9150611e9982611e5a565b602082019050919050565b5f6020820190508181035f830152611ebb81611e82565b9050919050565b7f7b226964223a22746573742d6a6f622d313233222c2264617461223a7b2276615f8201527f756c7441646472657373223a2200000000000000000000000000000000000000602082015250565b5f611f1c602d83611de2565b9150611f2782611ec2565b602d82019050919050565b7f222c22706572696f64223a2200000000000000000000000000000000000000005f82015250565b5f611f66600c83611de2565b9150611f7182611f32565b600c82019050919050565b7f227d7d00000000000000000000000000000000000000000000000000000000005f82015250565b5f611fb0600383611de2565b9150611fbb82611f7c565b600382019050919050565b5f611fd082611f10565b9150611fdc8285611e14565b9150611fe782611f5a565b9150611ff38284611e14565b9150611ffe82611fa4565b91508190509392505050565b5f819050815f5260205f209050919050565b5f6020601f8301049050919050565b5f82821b905092915050565b5f600883026120667fffffffffffffffffffffffffffffffffffffffffffffffffffffffffffffffff8261202b565b612070868361202b565b95508019841693508086168417925050509392505050565b5f819050919050565b5f6120ab6120a66120a1846119d9565b612088565b6119d9565b9050919050565b5f819050919050565b6120c483612091565b6120d86120d0826120b2565b848454612037565b825550505050565b5f90565b6120ec6120e0565b6120f78184846120bb565b505050565b5b8181101561211a5761210f5f826120e4565b6001810190506120fd565b5050565b601f82111561215f576121308161200a565b6121398461201c565b81016020851015612148578190505b61215c6121548561201c565b8301826120fc565b50505b505050565b5f82821c905092915050565b5f61217f5f1984600802612164565b1980831691505092915050565b5f6121978383612170565b9150826002028217905092915050565b6121b082611dd8565b67ffffffffffffffff8111156121c9576121c8611b0c565b5b6121d38254611da8565b6121de82828561211e565b5f60209050601f83116001811461220f575f84156121fd578287015190505b612207858261218c565b86555061226e565b601f19841661221d8661200a565b5f5b828110156122445784890151825560018201915060208501945060208101905061221f565b86831015612261578489015161225d601f891682612170565b8355505b6001600288020188555050505b505050505050565b7f4e487b71000000000000000000000000000000000000000000000000000000005f52603260045260245ffd5b7f4e487b71000000000000000000000000000000000000000000000000000000005f52601160045260245ffd5b5f6122da826119d9565b91506122e5836119d9565b92508282039050818111156122fd576122fc6122a3565b5b92915050565b5f61230d826119d9565b9150612318836119d9565b9250828202612326816119d9565b9150828204841483151761233d5761233c6122a3565b5b5092915050565b5f8160011c9050919050565b5f808291508390505b600185111561239957808604811115612375576123746122a3565b5b60018516156123845780820291505b808102905061239285612344565b9450612359565b94509492505050565b5f826123b1576001905061246c565b816123be575f905061246c565b81600181146123d457600281146123de5761240d565b600191505061246c565b60ff8411156123f0576123ef6122a3565b5b8360020a915084821115612407576124066122a3565b5b5061246c565b5060208310610133831016604e8410600b84101617156124425782820a90508381111561243d5761243c6122a3565b5b61246c565b61244f8484846001612350565b92509050818404811115612466576124656122a3565b5b81810290505b9392505050565b5f61247d826119d9565b9150612488836119d9565b92506124b57fffffffffffffffffffffffffffffffffffffffffffffffffffffffffffffffff84846123a2565b905092915050565b7f4e487b71000000000000000000000000000000000000000000000000000000005f52601260045260245ffd5b5f6124f4826119d9565b91506124ff836119d9565b92508261250f5761250e6124bd565b5b828204905092915050565b5f60ff82169050919050565b5f6125308261251a565b915061253b8361251a565b92508261254b5761254a6124bd565b5b828204905092915050565b5f6125608261251a565b915061256b8361251a565b92508282026125798161251a565b915080821461258b5761258a6122a3565b5b5092915050565b5f61259c8261251a565b91506125a78361251a565b9250828203905060ff8111156125c0576125bf6122a3565b5b92915050565b5f6125d0826119d9565b91506125db836119d9565b92508282019050808211156125f3576125f26122a3565b5b92915050565b5f612603826119d9565b91507fffffffffffffffffffffffffffffffffffffffffffffffffffffffffffffffff8203612635576126346122a3565b5b600182019050919050565b7f4f6e6c792063616c6c61626c65206279206f776e6572000000000000000000005f82015250565b5f612674601683611cdd565b915061267f82612640565b602082019050919050565b5f6020820190508181035f8301526126a181612668565b9050919050565b7f43616e6e6f74207472616e7366657220746f2073656c660000000000000000005f82015250565b5f6126dc601783611cdd565b91506126e7826126a8565b602082019050919050565b5f6020820190508181035f830152612709816126d0565b9050919050565b5f61271a8261251a565b91506127258361251a565b9250828201905060ff81111561273e5761273d6122a3565b5b92915050565b5f819050919050565b5f61275782612744565b915061276283612744565b925082820390508181125f8412168282135f851215161715612787576127866122a3565b5b92915050565b5f7fffffffff0000000000000000000000000000000000000000000000000000000082169050919050565b6127c18161278d565b82525050565b5f81519050919050565b5f82825260208201905092915050565b5f6127eb826127c7565b6127f581856127d1565b9350612805818560208601611dec565b61280e81611afc565b840191505092915050565b5f60e08201905061282c5f83018a611a7a565b6128396020830189611c8a565b6128466040830188611aa2565b61285360608301876127b8565b6128606080830186611c8a565b61286d60a0830185611c8a565b81810360c083015261287f81846127e1565b905098975050505050505050565b5f612897826119d9565b91506128a2836119d9565b9250826128b2576128b16124bd565b5b828206905092915050565b5f6128d76128d26128cd84611a4a565b612088565b611a4a565b9050919050565b5f6128e8826128bd565b9050919050565b5f6128f9826128de565b9050919050565b5f8160601b9050919050565b5f61291682612900565b9050919050565b5f6129278261290c565b9050919050565b61293f61293a826128ef565b61291d565b82525050565b5f819050919050565b61295f61295a826119d9565b612945565b82525050565b5f612970828561292e565b601482019150612980828461294e565b6020820191508190509392505050565b5f6060820190506129a35f830186611a7a565b6129b06020830185611c8a565b81810360408301526129c281846127e1565b9050949350505050565b5f8115159050919050565b6129e0816129cc565b81146129ea575f80fd5b50565b5f815190506129fb816129d7565b92915050565b5f60208284031215612a1657612a1561199e565b5b5f612a23848285016129ed565b91505092915050565b7f756e61626c6520746f207472616e73666572416e6443616c6c20746f206f72615f8201527f636c650000000000000000000000000000000000000000000000000000000000602082015250565b5f612a86602383611cdd565b9150612a9182612a2c565b604082019050919050565b5f6020820190508181035f830152612ab381612a7a565b905091905056fe68747470733a2f2f6d616c6c2d766573742d65787465726e616c2d616461707465722e76657263656c2e6170702f5b22436f6e74656e742d54797065222c20226170706c69636174696f6e2f6a736f6e225da2646970667358221220784681e08783160277fd0fd01cd290b69adb11327e57e76aae1119c32166c6f864736f6c63430008140033",
    "linkReferences": {}
  },
  "methodIdentifiers": {
    "acceptOwnership()": "79ba5097",
    "fee()": "ddca3f43",
    "fulfill(bytes32,uint256)": "4357855e",
    "jobId()": "c2939d97",
    "oracleAddress()": "a89ae4ba",
    "owner()": "8da5cb5b",
    "requestRevenue(address,string)": "cf48bf8a",
    "responses(address,string)": "ddfb4920",
    "transferOwnership(address)": "f2fde38b"
  },
  "id": 29
}